S00C00004C6162312E73726563D8
S11300000C942E000C9443000C9443000C94430075
S11300100C9443000C9443000C9443000C94430050
S11300200C9443000C9443000C9443000C94430040
S11300300C9443000C9443000C9443000C94430030
S11300400C9443000C9443000C9443000C94430020
S11300500C9443000C9443000C94430011241FBEE1
S1130060CFEFD4E0DEBFCDBF11E0A0E0B1E0E6E920
S1130070F4E002C005900D92A431B107D9F70E94B3
S1130080FB010C9449020C94000087EB8093E5007B
S113009087E08093E6008FE08093E70080EC809314
S11300A0E4000895CF92DF92EF92FF92CF93DF9313
S11300B06B017C0183E0C816D104E104F1047CF1F6
S11300C0D701C60181709927AA27B078BB2354F4BD
S11300D00197A109B1098E6F9F6FAF6FBF6F019632
S11300E0A11DB11D892B8A2B8B2BE1F0C2E0D0E03E
S11300F008C0C701B6010E940802672B682B692B50
S1130100A1F021969E01442737FD4095542F2C15CC
S11301103D054E055F056CF381E090E008C081E089
S113012090E005C080E090E002C080E090E0DF91C4
S1130130CF91FF90EF90DF90CF900895CF93DF930E
S1130140CDB7DEB764970FB6F894DEBF0FBECDBF50
S113015094E1E0E0F1E0DE01119601900D929A95B0
S1130160E1F76630710508F0D9C08A3008F0D6C0CE
S1130170E82FF0E0EE0FFF1FEC0FFD1F818192814D
S113018061157105F1F4282F2F702093EC009C0168
S11301903595279535952795359527953595279543
S11301A02F702093F100292F2F702093F60080E107
S11301B09802812D990B1124282F2F702093FB0076
S11301C046C06130710511F5282F2295207F2093B8
S11301D0EC009C0135952795359527953595279500
S11301E0359527952295207F2093F100292F22957C
S11301F0207F2093F60080E19802812D990B112431
S1130200282F2295207F2093FB0045C06230710582
S1130210F1F4282F2F702093ED009C01359527953C
S11302203595279535952795359527952F702093E6
S1130230F200292F2F702093F70080E19802812D7E
S1130240990B1124282F2F702093FC0044C0633095
S1130250710509F5282F2295207F2093ED009C013C
S11302603595279535952795359527953595279572
S11302702295207F2093F200892F8295807F80939E
S1130280F700892F85958595859585958295807F3D
S11302908093FC0043C064307105E9F4282F2F706B
S11302A02093EE009C013595279535952795359536
S11302B02795359527952F702093F300892F8F70FC
S11302C08093F800892F85958595859585958F7000
S11302D08093FD0023C06530710501F5282F229518
S11302E0207F2093EE009C01359527953595279521
S11302F035952795359527952295207F2093F300F2
S1130300892F8295807F8093F800892F8595859524
S1130310859585958295807F8093FD0064960FB6C0
S1130320F894DEBF0FBECDBFDF91CF910895AF9299
S1130330BF92CF92DF92EF92FF920F931F93CF93CE
S1130340DF931616170618061906D4F037C0A7014E
S113035096010E940802A22EB32E042F152F862F79
S1130360BE0190E00E949E006A2D7B2D802F912F6C
S1130370219720F1161617061806190644F31EC015
S11303802AE030E040E050E00E940802022F132FE0
S1130390D42FC52F862F65E070E090E00E949E0068
S11303A0602F712F8D2F9C2FC4E0D0E00F2EFAE028
S11303B0CF2ED12CE12CF12CF02DDCCFDF91CF917D
S11303C01F910F91FF90EF90DF90CF90BF90AF906F
S11303D008956B017C01C701B6010E945200019788
S11303E021F4C701B6010E9497018FEFC81AD80AF9
S11303F0E80AF80AF0CFE1E6F0E080E880831082B2
S11304000E94450064E070E080E090E00E94E90111
S1130410052E97FB1EF400940E941F0257FD07D07F
S11304200E94270207FC03D04EF40C941F0250953F
S11304304095309521953F4F4F4F5F4F08959095CC
S11304408095709561957F4F8F4F9F4F0895A1E2DE
S11304501A2EAA1BBB1BFD010DC0AA1FBB1FEE1F3A
S1130460FF1FA217B307E407F50720F0A21BB30B85
S1130470E40BF50B661F771F881F991F1A9469F701
S113048060957095809590959B01AC01BD01CF015D
S10904900895F894FFCF6B
S113049651158020111E111B500B411B411F1101C8
S10704A6511F510B82
S9030000FC
