S00C00004C6162312E73726563D8
S11300000C942E000C9443000C9443000C94430075
S11300100C9443000C9443000C9443000C94430050
S11300200C9443000C9443000C9443000C94430040
S11300300C9443000C9443000C9443000C94430030
S11300400C9443000C9443000C9443000C94430020
S11300500C9443000C9443000C94430011241FBEE1
S1130060CFEFD4E0DEBFCDBF11E0A0E0B1E0E8EB1C
S1130070F5E002C005900D92A431B107D9F70E94B2
S113008090020C94DA020C94000087EB8093E50054
S113009087E08093E6008FE08093E70080EC809314
S11300A0E4000895CF92DF92EF92FF92CF93DF9313
S11300B06B017C0183E0C816D104E104F1047CF1F6
S11300C0D701C60181709927AA27B078BB2354F4BD
S11300D00197A109B1098E6F9F6FAF6FBF6F019632
S11300E0A11DB11D892B8A2B8B2BE1F0C2E0D0E03E
S11300F008C0C701B6010E949902672B682B692BBF
S1130100A1F021969E01442737FD4095542F2C15CC
S11301103D054E055F056CF381E090E008C081E089
S113012090E005C080E090E002C080E090E0DF91C4
S1130130CF91FF90EF90DF90CF900895CF93DF930E
S1130140CDB7DEB764970FB6F894DEBF0FBECDBF50
S113015094E1E0E0F1E0DE01119601900D929A95B0
S1130160E1F76630710508F0FDC08A3008F0FAC086
S1130170E82FF0E0EE0FFF1FEC0FFD1F818192814D
S11301806115710551F5ECEEF0E02081382F3F70D8
S1130190232B20839C0135952795359527953595F7
S11301A0279535952795E1EFF0E030812F70232BCB
S11301B02083E6EFF0E02081392F3F70232B20834A
S11301C080E19802812D990B1124EBEFF0E020815E
S11301D0382F3F70232B208352C06130710511F5F5
S11301E0282F2295207F2093EC009C01359527959C
S11301F03595279535952795359527952295207F13
S11302002093F100292F2295207F2093F60080E18E
S11302109802812D990B1124282F2295207F209359
S1130220FB0051C06230710551F5EDEEF0E0208124
S1130230382F3F70232B20839C01359527953595C6
S113024027953595279535952795E2EFF0E0308190
S11302502F70232B2083E7EFF0E02081392F3F70AC
S1130260232B208380E19802812D990B1124ECEF3C
S1130270F0E02081382F3F70232B208350C063305F
S1130280710509F5282F2295207F2093ED009C010C
S11302903595279535952795359527953595279542
S11302A02295207F2093F200892F8295807F80936E
S11302B0F700892F85958595859585958295807F0D
S11302C08093FC004FC06430710549F5EEEEF0E018
S11302D02081382F3F70232B20839C01359527954F
S11302E0359527953595279535952795E3EFF0E0D6
S11302F080812F70282B2083E8EFF0E08081292F64
S11303002F70822B8083EDEFF0E02081892F85957B
S11303108595859585958F70822B808323C0653064
S1130320710501F5282F2295207F2093EE009C0172
S113033035952795359527953595279535952795A1
S11303402295207F2093F300892F8295807F8093CC
S1130350F800892F85958595859585958295807F6B
S11303608093FD0064960FB6F894DEBF0FBECDBF38
S1130370DF91CF910895AF92BF92CF92DF92EF9227
S1130380FF920F931F93CF93DF9316161706180649
S11303901906D4F037C0A70196010E949902A22E33
S11303A0B32E042F152F862FBE0190E00E949E00CD
S11303B06A2D7B2D802F912F219720F11616170679
S11303C01806190644F31EC02AE030E040E050E06D
S11303D00E949902022F132FD42FC52F862F65E078
S11303E070E090E00E949E00602F712F8D2F9C2F53
S11303F0C4E0D0E00F2EFAE0CF2ED12CE12CF12C6A
S1130400F02DDCCFDF91CF911F910F91FF90EF90F2
S1130410DF90CF90BF90AF900895CF92DF92EF928C
S1130420FF926C01EE24D7FCE094FE2CC701B601C8
S11304300E945200019721F4C701B6010E94BB013A
S1130440FF90EF90DF90CF90089523B1207830E0B3
S11304502817390781F01F9B0EC08091F900813065
S113046029F41092F9008093FE0005C081E0809386
S1130470F9001092FE0083B1807890E008952F9ADD
S113048083B18078C82ED12C84E0809381001092AF
S1130490850010928400C0E0D0E000E010E00F2E50
S11304A0F8EA6F2EF1E67F2EF02D0F2EF4E8EF2EF2
S11304B0F12CF02D0F2EFDEE8F2E912CF02D2224F9
S11304C02394312C412C512CC6010E9425026C012D
S11304D0F701808191818017910788F0209779F442
S11304E00E5E1548F4018081811105C082E080838D
S11304F0C22DD32D04C0F4011082C22DD32DF701D7
S1130500808191818017910710F4C42DD52D53015A
S1130510EFEFAE1ABE0AC3010E940D023501D4CF1B
S1130520E1E6F0E080E8808310820E9445000E94AA
S11305303F02052E97FB1EF400940E94B00257FD63
S113054007D00E94B80207FC03D04EF40C94B0020A
S113055050954095309521953F4F4F4F5F4F0895EB
S113056090958095709561957F4F8F4F9F4F08951B
S1130570A1E21A2EAA1BBB1BFD010DC0AA1FBB1FA3
S1130580EE1FFF1FA217B307E407F50720F0A21B15
S1130590B30BE40BF50B661F771F881F991F1A9482
S11305A069F760957095809590959B01AC01BD01AC
S10B05B0CF010895F894FFCF78
S11305B851158020111E111B500B411B411F1101A5
S10705C8511F510B5F
S9030000FC
