S00C00004C6162312E73726563D8
S11300000C942E000C9443000C9443000C94430075
S11300100C9443000C9443000C9443000C94430050
S11300200C9443000C9443000C9443000C94430040
S11300300C9443000C9443000C9443000C94430030
S11300400C9443000C9443000C9443000C94430020
S11300500C9443000C9443000C94430011241FBEE1
S1130060CFEFD4E0DEBFCDBF11E0A0E0B1E0E8E91E
S1130070F5E002C005900D92A431B107D9F70E94B2
S11300807B020C94CA020C94000087EB8093E50079
S113009087E08093E6008FE08093E70080EC809314
S11300A0E4000895CF92DF92EF92FF92CF93DF9313
S11300B06B017C0183E0C816D104E104F1047CF1F6
S11300C0D701C60181709927AA27B078BB2354F4BD
S11300D00197A109B1098E6F9F6FAF6FBF6F019632
S11300E0A11DB11D892B8A2B8B2BE1F0C2E0D0E03E
S11300F008C0C701B6010E948902672B682B692BCF
S1130100A1F021969E01442737FD4095542F2C15CC
S11301103D054E055F056CF381E090E008C081E089
S113012090E005C080E090E002C080E090E0DF91C4
S1130130CF91FF90EF90DF90CF900895CF93DF930E
S1130140CDB7DEB764970FB6F894DEBF0FBECDBF50
S113015094E1E0E0F1E0DE01119601900D929A95B0
S1130160E1F76630710508F043C18A3008F0805326
S1130170893008F03DC1E82FF0E0EE0FFF1FEC0FCF
S1130180FD1F818192816115710571F5ECEEF0E03E
S11301902081382F3F70207F232B20839C013595AD
S11301A02795359527953595279535952795E1EF2D
S11301B0F0E030812F70307F232B2083E6EFF0E0D6
S11301C02081392F3F70207F232B208380E19802E8
S11301D0812D990B1124EBEFF0E02081382F3F7033
S11301E0207F232B208366C06130710591F5ECEEEE
S11301F0F0E02081382F3295307F2F70232B20831D
S1130200E1EFF0E040819C01207F3327342F3F70E1
S1130210232B2083E6EFF0E040819C013295229568
S11302202F7023273F702327207F3327342F3F70DD
S1130230232B208380E19802812D990B1124EBEF6D
S1130240F0E02081382F3295307F2F70232B2083CC
S113025069C06230710571F5EDEEF0E02081382F50
S11302603F70207F232B20839C013595279535955E
S113027027953595279535952795E2EFF0E0308160
S11302802F70307F232B2083E7EFF0E02081392F7C
S11302903F70207F232B208380E19802812D990BCE
S11302A01124ECEFF0E02081382F3F70207F232BC6
S11302B0208367C063307105A9F5EDEEF0E020817D
S11302C0382F3295307F2F70232B2083E2EFF0E01C
S11302D040819C01207F3327342F3F70232B2083C0
S11302E0E7EFF0E040819C01329522952F7023279F
S11302F03F702327207F3327342F3F70232B208305
S1130300ECEFF0E02081892F992782958F708295F8
S11303109295907F9827807F9827922F9F70892BA2
S1130320808366C06430710561F5EEEEF0E02081F3
S1130330382F3F70207F232B20839C0135952795F0
S1130340359527953595279535952795E3EFF0E075
S113035080812F70807F282B2083E8EFF0E080815C
S1130360292F2F70807F822B8083EDEFF0E0808136
S113037095959595959595959F70807F892B80830C
S113038037C065307105A1F5EEEEF0E02081382F1D
S11303903295307F2F70232B2083E3EFF0E04081F0
S11303A09C01207F3327342F3F70232B2083E8EFD9
S11303B0F0E040819C01329522952F7023273F70F5
S11303C02327207F3327342F3F70232B2083EDEF07
S11303D0F0E02081892F992782958F7082959295DC
S11303E0907F9827807F9827922F9F70892B8083F6
S11303F064960FB6F894DEBF0FBECDBFDF91CF91E8
S11304000895AF92BF92CF92DF92EF92FF920F9333
S11304101F93CF93DF931616170618061906D4F008
S113042037C0A70196010E948902A22EB32E042F81
S1130430152F862FBE0190E00E949E006A2D7B2D11
S1130440802F912F219720F11616170618061906EA
S113045044F31EC02AE030E040E050E00E948902EC
S1130460022F132FD42FC52F862F65E070E090E064
S11304700E949E00602F712F8D2F9C2FC4E0D0E02E
S11304800F2EFAE0CF2ED12CE12CF12CF02DDCCF65
S1130490DF91CF911F910F91FF90EF90DF90CF905C
S11304A0BF90AF900895CF92DF92EF92FF926B01CD
S11304B07C018EEAC81681E0D806E104F104B4F4A4
S11304C0C701B6010E945200019721F4C701B60189
S11304D00E9401028FEFC81AD80AE80AF80A8EEAC5
S11304E0C81681E0D806E104F10451F7FF90EF90BB
S11304F0DF90CF900895E1E6F0E080E880831082F9
S11305000E94450062E070E080E090E00E945302A7
S1130510F9CF052E97FB1EF400940E94A00257FD0C
S113052007D00E94A80207FC03D04EF40C94A0024A
S113053050954095309521953F4F4F4F5F4F08950B
S113054090958095709561957F4F8F4F9F4F08953B
S1130550A1E21A2EAA1BBB1BFD010DC0AA1FBB1FC3
S1130560EE1FFF1FA217B307E407F50720F0A21B35
S1130570B30BE40BF50B661F771F881F991F1A94A2
S113058069F760957095809590959B01AC01BD01CC
S10B0590CF010895F894FFCF98
S113059851158020111E111B500B411B411F1101C5
S10705A8511F510B7F
S9030000FC
