:100000000C942E000C944B000C944B000C94B202F8
:100010000C944B000C944B000C944B000C948602F7
:100020000C944B000C944B000C944B000C944B0024
:100030000C944B000C944B000C944B000C944B0014
:100040000C944B000C944B000C944B000C944B0004
:100050000C944B000C944B000C944B0011241FBECD
:10006000CFEFD4E0DEBFCDBF11E0A0E0B1E0E0E231
:10007000F9E002C005900D92A831B107D9F723E04D
:10008000A8E1B1E001C01D92A534B207E1F70E94DA
:10009000DA020C948E040C940000CDEED0E012E055
:1000A0008CE191E00E94D3038881811102C0188302
:1000B000F7CF1882F5CF87EB8093E50087E0809338
:1000C000E6008FE08093E70080EC8093E4000895E1
:1000D000CF92DF92EF92FF92CF93DF936B017C017F
:1000E00083E0C816D104E104F1047CF1D701C60114
:1000F00081709927AA27B078BB2354F40197A109EE
:10010000B1098E6F9F6FAF6FBF6F0196A11DB11DBB
:10011000892B8A2B8B2BE1F0C2E0D0E008C0C7010D
:10012000B6010E940C04672B682B692BA1F0219665
:100130009E01442737FD4095542F2C153D054E0553
:100140005F056CF381E090E008C081E090E005C0BD
:1001500080E090E002C080E090E0DF91CF91FF90DE
:10016000EF90DF90CF900895CF93DF93CDB7DEB7B8
:1001700064970FB6F894DEBF0FBECDBF94E1E4E004
:10018000F1E0DE01119601900D929A95E1F766304B
:10019000710508F043C18A3008F08053893008F0B7
:1001A0003DC1E82FF0E0EE0FFF1FEC0FFD1F818136
:1001B00092816115710571F5ECEEF0E02081382F28
:1001C0003F70207F232B20839C0135952795359503
:1001D00027953595279535952795E1EFF0E0308106
:1001E0002F70307F232B2083E6EFF0E02081392F22
:1001F0003F70207F232B208380E19802812D990B73
:100200001124EBEFF0E02081382F3F70207F232B6B
:10021000208366C06130710591F5ECEEF0E020813D
:10022000382F3295307F2F70232B2083E1EFF0E0C1
:1002300040819C01207F3327342F3F70232B208364
:10024000E6EFF0E040819C01329522952F70232744
:100250003F702327207F3327342F3F70232B2083A9
:1002600080E19802812D990B1124EBEFF0E02081C1
:10027000382F3295307F2F70232B208369C0623056
:10028000710571F5EDEEF0E02081382F3F70207F91
:10029000232B20839C0135952795359527953595FA
:1002A000279535952795E2EFF0E030812F70307F6C
:1002B000232B2083E7EFF0E02081392F3F70207F50
:1002C000232B208380E19802812D990B1124ECEFE0
:1002D000F0E02081382F3F70207F232B208367C0E0
:1002E00063307105A9F5EDEEF0E02081382F3295ED
:1002F000307F2F70232B2083E2EFF0E040819C01C0
:10030000207F3327342F3F70232B2083E7EFF0E04B
:1003100040819C01329522952F7023273F7023271F
:10032000207F3327342F3F70232B2083ECEFF0E026
:100330002081892F992782958F7082959295907F41
:100340009827807F9827922F9F70892B808366C083
:100350006430710561F5EEEEF0E02081382F3F70DA
:10036000207F232B20839C01359527953595279554
:100370003595279535952795E3EFF0E080812F702F
:10038000807F282B2083E8EFF0E08081292F2F70D9
:10039000807F822B8083EDEFF0E0808195959595AD
:1003A000959595959F70807F892B808337C06530A8
:1003B0007105A1F5EEEEF0E02081382F3295307F07
:1003C0002F70232B2083E3EFF0E040819C01207FFE
:1003D0003327342F3F70232B2083E8EFF0E0408158
:1003E0009C01329522952F7023273F702327207F71
:1003F0003327342F3F70232B2083EDEFF0E0208153
:10040000892F992782958F7082959295907F982752
:10041000807F9827922F9F70892B808364960FB6D8
:10042000F894DEBF0FBECDBFDF91CF9108950F933B
:100430001F93CF93DF93162FEA0189E2689F812DE6
:10044000112482958F70962F24E6829F9019112493
:100450000DEC909F812D1124869586958695BA0185
:10046000805D0E94B400BE016F5F7F4F109F012D21
:100470001124069506950695000F802F880F880F8A
:10048000080F812F801B805D0E94B400DF91CF9107
:100490001F910F910895EC01C12CD12C7601C394CA
:1004A000C701B6010E946800019729F4AE01C70197
:1004B000B6010E9417028FEFC81AD80AE80AF80A94
:1004C000EFCF8C01C0E0D0E088E191E00E94D3033F
:1004D0002196BE01882777FD8095982FA8010E945C
:1004E0001702F2CF80EC809380008DE08093810032
:1004F000109285001092840082E49FE0909389001E
:100500008093880082E080936F0008951F920F927D
:100510000FB60F9211242F933F934F935F936F93D6
:100520007F938F939F93AF93BF93EF93FF938CE150
:1005300091E00E94EF03FF91EF91BF91AF919F91E6
:100540008F917F916F915F914F913F912F910F907C
:100550000FBE0F901F90189580E880936C008DBBA4
:1005600085B908951F920F920FB60F9211242F9301
:100570003F934F935F936F937F938F939F93AF932B
:10058000BF93EF93FF931F9904C088E191E00E940D
:10059000EF03FF91EF91BF91AF919F918F917F9169
:1005A0006F915F914F913F912F910F900FBE0F90E0
:1005B0001F901895E1E6F0E080E8808310820E94A9
:1005C0005B000E9472020E94AC028CE191E00E94EA
:1005D000D30388E191E00E94D30364E070E081E6F8
:1005E00092E00E9441030E94B60360E070E08DE457
:1005F00090E00E9441030E94B60380E090E00E94D8
:100600004B02F894FC0115821482FB012081318198
:100610002115310519F0FC0135832483FB019183F9
:10062000808378940895F894DC01ED91FC91119702
:10063000309709F4FFCF248135812D933C93CF016E
:100640000895CF93DF9300D0CDB7DEB79A83898327
:10065000809100019091010106960E944D04892B22
:1006600059F489819A81909301018093000161E09E
:1006700070E006960E946D040F900F90DF91CF916D
:100680000895EF92FF920F931F93CF93DF9300D0C3
:10069000CDB7DEB77C018B01F89480912001909159
:1006A0002101892BE1F48EEF91E0909396018093E4
:1006B00095018BE692E0909303028093020288ED0D
:1006C00092E09093700280936F021092DD0210927C
:1006D000DC0281E090E0909321018093200182E090
:1006E00091E00E9413039A838983FC01F182E082E6
:1006F000138302831582148206960E944D0401978B
:10070000E1F47894A0910001B0910101ED91FC9188
:10071000119712968D919C9113970995F89462E028
:1007200071E080910001909101010E94010382E239
:1007300091E00E9413030E94210389819A818759C5
:100740009F4FE981FA81978B868B918F808F62E230
:1007500071E0CF010E94010378940F900F90DF9118
:10076000CF911F910F91FF90EF900895CF93DF935A
:10077000F8948091220190912301892B81F082E2EB
:1007800091E00E941303EC0162E271E080910001AC
:10079000909101010E940103CE010E9421037894EF
:1007A000DF91CF910895F894FC0120813181232BB2
:1007B00029F421E030E0318320830FC0BC016E5F5B
:1007C0007F4F80910001909101010E94010382E21C
:1007D00091E00E9413030E94210378940895CF931F
:1007E000DF93EC01F8948A819B81892B79F062E296
:1007F00071E080910001909101010E940103CE01FE
:1008000002960E9413030E94210302C019821882DB
:100810007894DF91CF910895052E97FB1EF40094F4
:100820000E94230457FD07D00E942B0407FC03D02D
:100830004EF40C94230450954095309521953F4FEC
:100840004F4F5F4F089590958095709561957F4FBC
:100850008F4F9F4F0895A1E21A2EAA1BBB1BFD01CB
:100860000DC0AA1FBB1FEE1FFF1FA217B307E4078F
:10087000F50720F0A21BB30BE40BF50B661F771FE7
:10088000881F991F1A9469F76095709580959095C7
:100890009B01AC01BD01CF010895DC012D923D9279
:1008A0004D925D926D927D928D929D92AD92BD9290
:1008B000CD92DD92ED92FD920D931D93CD93DD933C
:1008C000FF91EF918DB78D938EB78D938FB78D93E9
:1008D000ED93FD93882799270994DC01CB018130A2
:1008E0009105811D2D903D904D905D906D907D9076
:1008F0008D909D90AD90BD90CD90DD90ED90FD9050
:100900000D911D91CD91DD91ED91FD910D90F8949A
:10091000FEBF0FBEEDBFED91FD910994F894FFCF9E
:100920002401910151158020111E111B500B411BF8
:08093000411F1101511F510B81
:00000001FF
