S0120000436F6E74726F6C6C65722E73726563EE
S11300000C942E000C94AA040C9416050C948205EE
S11300100C94EE050C945A060C944B000C94310D80
S11300200C944B000C94DF0C0C94C6060C94320711
S11300300C949E070C940A080C9476080C94E2081D
S11300400C944E090C94BA090C94260A0C94920A46
S11300500C94FE0A0C946A0B0C94D60B11241FBE4C
S1130060CFEFD4E0DEBFCDBF11E0A0E0B1E0ECED16
S1130070F1E202C005900D92A432B107D9F724E051
S1130080A4E2B1E001C01D92A538B207E1F70E94D5
S11300904D000C94EC100C9400000E945F0048E0AA
S11300A068E270E180E091E00E94F20F49E050E0E4
S11300B060ED73E084E291E00E940C100895E1E6A3
S11300C0F0E080E88083108220ED25B99CE09EB9A1
S11300D080EC8DBB20936C0090936B0097EB909316
S11300E0E50097E09093E6009FE09093E70080930B
S11300F0E40083E390E09093C5008093C40088E912
S11301008093C10086E08093C2000895CF93DF936B
S1130110CDB7DEB764970FB6F894DEBF0FBECDBF80
S113012094E1E0E1F1E0DE01119601900D929A95DF
S1130130E1F76630710508F043C18A3020F080533E
S11301408A3008F03DC1E82FF0E0EE0FFF1FEC0FFE
S1130150FD1F818192816115710571F5ECEEF0E06E
S11301602081382F3F70207F232B2083AC015595AD
S11301704795559547955595479555954795E1EF7D
S1130180F0E020814F70207F242B2083E6EFF0E005
S11301902081392F3F70207F232B208380E1980218
S11301A0812D990B1124EBEFF0E02081382F3F7063
S11301B0207F232B208366C06130710591F5ECEE1E
S11301C0F0E02081382F3295307F2F70232B20834D
S11301D0E1EFF0E040819C01207F3327342F3F7012
S11301E0232B2083E6EFF0E040819C013295229599
S11301F02F7023273F702327207F3327342F3F700E
S1130200232B208380E19802812D990B1124EBEF9D
S1130210F0E02081382F3295307F2F70232B2083FC
S113022069C06230710571F5EDEEF0E02081382F80
S11302303F70207F232B2083AC015595479555951E
S113024047955595479555954795E2EFF0E0208100
S11302504F70207F242B2083E7EFF0E02081392F9B
S11302603F70207F232B208380E19802812D990BFE
S11302701124ECEFF0E02081382F3F70207F232BF6
S1130280208367C063307105A9F5EDEEF0E02081AD
S1130290382F3295307F2F70232B2083E2EFF0E04C
S11302A040819C01207F3327342F3F70232B2083F0
S11302B0E7EFF0E040819C01329522952F702327CF
S11302C03F702327207F3327342F3F70232B208335
S11302D0ECEFF0E02081892F992782958F70829529
S11302E09295907F9827807F9827922F9F70892BD3
S11302F0808366C06430710561F5EEEEF0E0208124
S1130300382F3F70207F232B20839C013595279520
S1130310359527953595279535952795E3EFF0E0A5
S113032080812F70807F822B8083E8EFF0E08081D2
S1130330292F2F70807F822B8083EDEFF0E0808166
S113034095959595959595959F70807F892B80833C
S113035037C065307105A1F5EEEEF0E02081382F4D
S11303603295307F2F70232B2083E3EFF0E0408120
S11303709C01207F3327342F3F70232B2083E8EF09
S1130380F0E040819C01329522952F7023273F7025
S11303902327207F3327342F3F70232B2083EDEF37
S11303A0F0E02081892F992782958F70829592950C
S11303B0907F9827807F9827922F9F70892B808326
S11303C064960FB6F894DEBF0FBECDBFDF91CF9118
S11303D008950F931F93CF93DF93D62F8A0189E259
S11303E0689F812D112482958F70962F24E6829F19
S11303F090191124CDEC9C9F812D1124869586950E
S11304008695BA01805D0E948600B8016F5F7F4FB8
S1130410DC9FC12D1124C695C695C695CC0F8C2F93
S1130420880F880FC80F8D2F8C1B805D0E9486005B
S1130430DF91CF911F910F910895FC016481758123
S1130440072E000C880B990B40E050E00E94E90154
S11304500895FC0164857585072E000C880B990BA3
S113046042E050E00E94E9010895FC016681778131
S1130470072E000C880B990B44E050E00E94E90120
S11304800895FC01608771876093C6000895CF9238
S1130490DF92EF92FF920F931F93FC01C484D584E3
S11304A0F1E0CF1AD108FC01D586C4860F2EF9E2FB
S11304B0EF2EF2E0FF2EF02D8C0120E030E0A901B8
S11304C060E070E0CB010E94E60D1F910F91FF9058
S11304D0EF90DF90CF900895CF92DF92EF92FF924A
S11304E00F931F93CF93DF93EC016130710509F4EF
S11304F049C01CF4672B51F04AC16230710509F4FC
S1130500A7C06330710509F4DFC041C1CC80DD8030
S11305108FEFC81AD80ADD82CC820F2EFDE1EF2EB0
S1130520F2E0FF2EF02D8E0120E030E0A90160E022
S113053070E0CB010E94E60D8E819F81892B09F02A
S113054026C1AC85BD85109739F489E090E0998780
S113055088878093C6001BC122E13AE70E94951068
S11305600F2EF9E0CF2ED12CF02D0F2EF1E4EF2E2B
S1130570F2E0FF2EF02D8E0120E030E0A9010E9470
S1130580E60D05C1CC80DD8081E0C81AD108DD828A
S1130590CC828A859B8501969B878A870F2EFDE1F5
S11305A0EF2EF2E0FF2EF02D8E0120E030E0A901C5
S11305B060E070E0CB010E94E60DCC84DD848FEF17
S11305C0C81AD80ADD86CC860F2EF9E2EF2EF2E0A7
S11305D0FF2EF02D20E030E0A90160E070E0CB01B7
S11305E00E94E60DC12CD12C0F2EF7E4EF2EF2E081
S11305F0FF2EF02D20E030E0A9016AE572E682E0EA
S113060090E00E94E60D8C819D81892B29F08A85DA
S11306109B8544970CF4BBC0198618861092C600BB
S11306200F2EF6E0CF2ED12CF02D0F2EF1E4EF2E6D
S1130630F2E0FF2EF02D8E0120E030E0A9016CE6FF
S11306407CED82E090E00E94E60D1B861A869FC036
S1130650CE80DF808FEFC81AD80ADF82CE820F2EB9
S1130660F5E3EF2EF2E0FF2EF02D8E0120E030E0D6
S1130670A90160E070E0CB010E94E60D8C819D81B0
S1130680892B09F084C0AC85BD85109739F486E0C8
S113069090E0998788878093C60079C022E13AE781
S11306A00E9495100F2EF6E0CF2ED12CF02D0F2E98
S11306B0F1E4EF2EF2E0FF2EF02D8E0120E030E089
S11306C0A9010E94E60D63C0CE80DF8081E0C81AD4
S11306D0D108DF82CE820F2EF5E3EF2EF2E0FF2E5B
S11306E0F02D8E0120E030E0A90160E070E0CB0144
S11306F00E94E60D8A859B8501969B878A87CC8418
S1130700DD848FEFC81AD80ADD86CC860F2EF9E275
S1130710EF2EF2E0FF2EF02D20E030E0A90160E0A2
S113072070E0CB010E94E60D6E010F2EF7E4EF2E70
S1130730F2E0FF2EF02D20E030E0A9016AE572E638
S113074082E090E00E94E60D8E819F81892B21F04A
S11307508A859B854497DCF0198618861092C6001A
S11307600F2EF9E0CF2ED12CF02D0F2EF1E4EF2E29
S1130770F2E0FF2EF02D8E0120E030E0A9016CE6BE
S11307807CED82E090E00E94E60D1B861A86DF91E4
S1130790CF911F910F91FF90EF90DF90CF9008952C
S11307A0CF93DF93EC010E941D02CE010E94290227
S11307B0CE010E94350289E090E099878887809372
S11307C0C600DF91CF910895CF93DF9300D000D07E
S11307D0CDB7DEB785E292E025E033E0FC01709707
S11307E091838083409682179307C1F71092F60293
S11307F01092F502E0E6F1E08DE791E091838083C9
S11308008AE991E0968F858FA7EBB1E0B3AFA2AFF1
S11308101D921C92FA83E983E1E6F3E0FC83EB8307
S113082089819A8106960E94AB108B819C81E98113
S1130830FA81978B868B918F808F84E89FE0948FC9
S1130840838F158214827D96FA83E983EB81FC8180
S1130850E05AFF4FFC83EB8389819A81845D914048
S1130860F9F6E8EFF1E01182108215821482138206
S11308701282E1E6F0E080E8808310821092850025
S11308801092840084E08093810081E080936F0063
S11308900F900F900F900F90DF91CF910895CF9309
S11308A0DF9300D0CDB7DEB79A83898380910801A6
S11308B09091090106960E94AB10892B59F4898105
S11308C09A81909309018093080161E070E0069693
S11308D00E94CB100F900F90DF91CF9108950F934A
S11308E01F93CF93DF93E0913A01F0913B0130974E
S11308F061F180910C0190910D01009731F1C0914B
S11309000A01D0910B01AA81BB81109779F046812D
S113091057816085718516960D911D912D913C919D
S11309201997401B510B620B730B7AF4FC01208165
S1130930318130930D0120930C01D183C0839093B6
S11309400B0180930A010E944F04DF91CF911F9104
S11309500F9108951F920F920FB60F9211242F93A7
S11309603F934F935F936F937F938F939F93AF9333
S1130970BF93EF93FF932091320130913301409163
S1130980840050918500C901032E000CAA0BBB0BF7
S1130990DC019927882760E070E0842B952BA62B37
S11309A0B72B8093340190933501A0933601B09313
S11309B03701B09B1BC04091840050918500C90150
S11309C00196092E000CAA0BBB0BDC019927882782
S11309D060E070E0842B952BA62BB72B8093340119
S11309E090933501A0933601B0933701E091D4017F
S11309F0F091D501309739F060E070E080913C01CE
S1130A0090913D0109950E946F04FF91EF91BF9170
S1130A10AF919F918F917F916F915F914F913F9192
S1130A202F910F900FBE0F901F9018951F920F9249
S1130A300FB60F9211242F933F934F935F936F93AD
S1130A407F938F939F93AF93BF93EF93FF932091E3
S1130A503201309133014091840050918500C901E5
S1130A60032E000CAA0BBB0BDC019927882760E03E
S1130A7070E0842B952BA62BB72B80933401909395
S1130A803501A0933601B0933701B09B1BC0409150
S1130A90840050918500C9010196092E000CAA0B0F
S1130AA0BB0BDC019927882760E070E0842B952B31
S1130AB0A62BB72B8093340190933501A093360174
S1130AC0B0933701E091D601F091D701309739F016
S1130AD061E070E080913E0190913F0109950E9490
S1130AE06F04FF91EF91BF91AF919F918F917F918F
S1130AF06F915F914F913F912F910F900FBE0F9087
S1130B001F9018951F920F920FB60F9211242F93D6
S1130B103F934F935F936F937F938F939F93AF9381
S1130B20BF93EF93FF9320913201309133014091B1
S1130B30840050918500C901032E000CAA0BBB0B45
S1130B40DC019927882760E070E0842B952BA62B85
S1130B50B72B8093340190933501A0933601B09361
S1130B603701B09B1BC04091840050918500C9019E
S1130B700196092E000CAA0BBB0BDC0199278827D0
S1130B8060E070E0842B952BA62BB72B8093340167
S1130B9090933501A0933601B0933701E091D801C9
S1130BA0F091D901309739F062E070E08091400112
S1130BB09091410109950E946F04FF91EF91BF91BB
S1130BC0AF919F918F917F916F915F914F913F91E1
S1130BD02F910F900FBE0F901F9018951F920F9298
S1130BE00FB60F9211242F933F934F935F936F93FC
S1130BF07F938F939F93AF93BF93EF93FF93209132
S1130C003201309133014091840050918500C90133
S1130C10032E000CAA0BBB0BDC019927882760E08C
S1130C2070E0842B952BA62BB72B809334019093E3
S1130C303501A0933601B0933701B09B1BC040919E
S1130C40840050918500C9010196092E000CAA0B5D
S1130C50BB0BDC019927882760E070E0842B952B7F
S1130C60A62BB72B8093340190933501A0933601C2
S1130C70B0933701E091DA01F091DB01309739F05C
S1130C8063E070E0809142019091430109950E94D4
S1130C906F04FF91EF91BF91AF919F918F917F91DD
S1130CA06F915F914F913F912F910F900FBE0F90D5
S1130CB01F9018951F920F920FB60F9211242F9325
S1130CC03F934F935F936F937F938F939F93AF93D0
S1130CD0BF93EF93FF932091320130913301409100
S1130CE0840050918500C901032E000CAA0BBB0B94
S1130CF0DC019927882760E070E0842B952BA62BD4
S1130D00B72B8093340190933501A0933601B093AF
S1130D103701B09B1BC04091840050918500C901EC
S1130D200196092E000CAA0BBB0BDC01992788271E
S1130D3060E070E0842B952BA62BB72B80933401B5
S1130D4090933501A0933601B0933701E091DC0113
S1130D50F091DD01309739F064E070E08091440156
S1130D609091450109950E946F04FF91EF91BF9105
S1130D70AF919F918F917F916F915F914F913F912F
S1130D802F910F900FBE0F901F9018951F920F92E6
S1130D900FB60F9211242F933F934F935F936F934A
S1130DA07F938F939F93AF93BF93EF93FF93209180
S1130DB03201309133014091840050918500C90182
S1130DC0032E000CAA0BBB0BDC019927882760E0DB
S1130DD070E0842B952BA62BB72B80933401909332
S1130DE03501A0933601B0933701B09B1BC04091ED
S1130DF0840050918500C9010196092E000CAA0BAC
S1130E00BB0BDC019927882760E070E0842B952BCD
S1130E10A62BB72B8093340190933501A093360110
S1130E20B0933701E091DE01F091DF01309739F0A2
S1130E3065E070E0809146019091470109950E9418
S1130E406F04FF91EF91BF91AF919F918F917F912B
S1130E506F915F914F913F912F910F900FBE0F9023
S1130E601F9018951F920F920FB60F9211242F9373
S1130E703F934F935F936F937F938F939F93AF931E
S1130E80BF93EF93FF93209132013091330140914E
S1130E90840050918500C901032E000CAA0BBB0BE2
S1130EA0DC019927882760E070E0842B952BA62B22
S1130EB0B72B8093340190933501A0933601B093FE
S1130EC03701B09B1BC04091840050918500C9013B
S1130ED00196092E000CAA0BBB0BDC01992788276D
S1130EE060E070E0842B952BA62BB72B8093340104
S1130EF090933501A0933601B0933701E091E0015E
S1130F00F091E101309739F066E070E0809148019A
S1130F109091490109950E946F04FF91EF91BF914F
S1130F20AF919F918F917F916F915F914F913F917D
S1130F302F910F900FBE0F901F9018951F920F9234
S1130F400FB60F9211242F933F934F935F936F9398
S1130F507F938F939F93AF93BF93EF93FF932091CE
S1130F603201309133014091840050918500C901D0
S1130F70032E000CAA0BBB0BDC019927882760E029
S1130F8070E0842B952BA62BB72B80933401909380
S1130F903501A0933601B0933701B09B1BC040913B
S1130FA0840050918500C9010196092E000CAA0BFA
S1130FB0BB0BDC019927882760E070E0842B952B1C
S1130FC0A62BB72B8093340190933501A09336015F
S1130FD0B0933701E091E201F091E301309739F0E9
S1130FE067E070E080914A0190914B0109950E945D
S1130FF06F04FF91EF91BF91AF919F918F917F917A
S11310006F915F914F913F912F910F900FBE0F9071
S11310101F9018951F920F920FB60F9211242F93C1
S11310203F934F935F936F937F938F939F93AF936C
S1131030BF93EF93FF93209132013091330140919C
S1131040840050918500C901032E000CAA0BBB0B30
S1131050DC019927882760E070E0842B952BA62B70
S1131060B72B8093340190933501A0933601B0934C
S11310703701B09B1BC04091840050918500C90189
S11310800196092E000CAA0BBB0BDC0199278827BB
S113109060E070E0842B952BA62BB72B8093340152
S11310A090933501A0933601B0933701E091E401A8
S11310B0F091E501309739F068E070E080914C01DF
S11310C090914D0109950E946F04FF91EF91BF919A
S11310D0AF919F918F917F916F915F914F913F91CC
S11310E02F910F900FBE0F901F9018951F920F9283
S11310F00FB60F9211242F933F934F935F936F93E7
S11311007F938F939F93AF93BF93EF93FF9320911C
S11311103201309133014091840050918500C9011E
S1131120032E000CAA0BBB0BDC019927882760E077
S113113070E0842B952BA62BB72B809334019093CE
S11311403501A0933601B0933701B09B1BC0409189
S1131150840050918500C9010196092E000CAA0B48
S1131160BB0BDC019927882760E070E0842B952B6A
S1131170A62BB72B8093340190933501A0933601AD
S1131180B0933701E091E601F091E701309739F02F
S113119069E070E080914E0190914F0109950E94A1
S11311A06F04FF91EF91BF91AF919F918F917F91C8
S11311B06F915F914F913F912F910F900FBE0F90C0
S11311C01F9018951F920F920FB60F9211242F9310
S11311D03F934F935F936F937F938F939F93AF93BB
S11311E0BF93EF93FF9320913201309133014091EB
S11311F0840050918500C901032E000CAA0BBB0B7F
S1131200DC019927882760E070E0842B952BA62BBE
S1131210B72B8093340190933501A0933601B0939A
S11312203701B09B1BC04091840050918500C901D7
S11312300196092E000CAA0BBB0BDC019927882709
S113124060E070E0842B952BA62BB72B80933401A0
S113125090933501A0933601B0933701E091E801F2
S1131260F091E901309739F06AE070E08091500123
S11312709091510109950E946F04FF91EF91BF91E4
S1131280AF919F918F917F916F915F914F913F911A
S11312902F910F900FBE0F901F9018951F920F92D1
S11312A00FB60F9211242F933F934F935F936F9335
S11312B07F938F939F93AF93BF93EF93FF9320916B
S11312C03201309133014091840050918500C9016D
S11312D0032E000CAA0BBB0BDC019927882760E0C6
S11312E070E0842B952BA62BB72B8093340190931D
S11312F03501A0933601B0933701B09B1BC04091D8
S1131300840050918500C9010196092E000CAA0B96
S1131310BB0BDC019927882760E070E0842B952BB8
S1131320A62BB72B8093340190933501A0933601FB
S1131330B0933701E091EA01F091EB01309739F075
S11313406BE070E0809152019091530109950E94E5
S11313506F04FF91EF91BF91AF919F918F917F9116
S11313606F915F914F913F912F910F900FBE0F900E
S11313701F9018951F920F920FB60F9211242F935E
S11313803F934F935F936F937F938F939F93AF9309
S1131390BF93EF93FF932091320130913301409139
S11313A0840050918500C901032E000CAA0BBB0BCD
S11313B0DC019927882760E070E0842B952BA62B0D
S11313C0B72B8093340190933501A0933601B093E9
S11313D03701B09B1BC04091840050918500C90126
S11313E00196092E000CAA0BBB0BDC019927882758
S11313F060E070E0842B952BA62BB72B80933401EF
S113140090933501A0933601B0933701E091EC013C
S1131410F091ED01309739F06CE070E08091540167
S11314209091550109950E946F04FF91EF91BF912E
S1131430AF919F918F917F916F915F914F913F9168
S11314402F910F900FBE0F901F9018951F920F921F
S11314500FB60F9211242F933F934F935F936F9383
S11314607F938F939F93AF93BF93EF93FF932091B9
S11314703201309133014091840050918500C901BB
S1131480032E000CAA0BBB0BDC019927882760E014
S113149070E0842B952BA62BB72B8093340190936B
S11314A03501A0933601B0933701B09B1BC0409126
S11314B0840050918500C9010196092E000CAA0BE5
S11314C0BB0BDC019927882760E070E0842B952B07
S11314D0A62BB72B8093340190933501A09336014A
S11314E0B0933701E091EE01F091EF01309739F0BC
S11314F06DE070E0809156019091570109950E942A
S11315006F04FF91EF91BF91AF919F918F917F9164
S11315106F915F914F913F912F910F900FBE0F905C
S11315201F9018951F920F920FB60F9211242F93AC
S11315303F934F935F936F937F938F939F93AF9357
S1131540BF93EF93FF932091320130913301409187
S1131550840050918500C901032E000CAA0BBB0B1B
S1131560DC019927882760E070E0842B952BA62B5B
S1131570B72B8093340190933501A0933601B09337
S11315803701B09B1BC04091840050918500C90174
S11315900196092E000CAA0BBB0BDC0199278827A6
S11315A060E070E0842B952BA62BB72B809334013D
S11315B090933501A0933601B0933701E091F00187
S11315C0F091F101309739F06EE070E080915801AC
S11315D09091590109950E946F04FF91EF91BF9179
S11315E0AF919F918F917F916F915F914F913F91B7
S11315F02F910F900FBE0F901F9018951F920F926E
S11316000FB60F9211242F933F934F935F936F93D1
S11316107F938F939F93AF93BF93EF93FF93209107
S11316203201309133014091840050918500C90109
S1131630032E000CAA0BBB0BDC019927882760E062
S113164070E0842B952BA62BB72B809334019093B9
S11316503501A0933601B0933701B09B1BC0409174
S1131660840050918500C9010196092E000CAA0B33
S1131670BB0BDC019927882760E070E0842B952B55
S1131680A62BB72B8093340190933501A093360198
S1131690B0933701E091F201F091F301309739F002
S11316A06FE070E080915A0190915B0109950E946E
S11316B06F04FF91EF91BF91AF919F918F917F91B3
S11316C06F915F914F913F912F910F900FBE0F90AB
S11316D01F9018951F920F920FB60F9211242F93FB
S11316E03F934F935F936F937F938F939F93AF93A6
S11316F0BF93EF93FF9320913201309133014091D6
S1131700840050918500C901032E000CAA0BBB0B69
S1131710DC019927882760E070E0842B952BA62BA9
S1131720B72B8093340190933501A0933601B09385
S11317303701B09B1BC04091840050918500C901C2
S11317400196092E000CAA0BBB0BDC0199278827F4
S113175060E070E0842B952BA62BB72B809334018B
S113176090933501A0933601B0933701E091F401D1
S1131770F091F501309739F060E170E080915C01FF
S113178090915D0109950E946F04FF91EF91BF91C3
S1131790AF919F918F917F916F915F914F913F9105
S11317A02F910F900FBE0F901F9018951F920F92BC
S11317B00FB60F9211242F933F934F935F936F9320
S11317C07F938F939F93AF93BF93EF93FF93209156
S11317D03201309133014091840050918500C90158
S11317E0032E000CAA0BBB0BDC019927882760E0B1
S11317F070E0842B952BA62BB72B80933401909308
S11318003501A0933601B0933701B09B1BC04091C2
S1131810840050918500C9010196092E000CAA0B81
S1131820BB0BDC019927882760E070E0842B952BA3
S1131830A62BB72B8093340190933501A0933601E6
S1131840B0933701E091F601F091F701309739F048
S113185061E170E080915E0190915F0109950E94C1
S11318606F04FF91EF91BF91AF919F918F917F9101
S11318706F915F914F913F912F910F900FBE0F90F9
S11318801F901895EF92FF920F931F93CF93DF93BE
S11318907B01EB01A881B981109761F1FC010681FC
S11318A017812085318516964D915D916D917C91BE
S11318B01997041715072607370714F41BC0DF010F
S11318C0ED91FC911197309749F0468157816085DD
S11318D0718504171507260737078CF7EC01F98380
S11318E0E883109721F4F7019183808307C08D93D7
S11318F09C9304C0EC01B983A883F5CFDF91CF9109
S11319001F910F91FF90EF900895EF92FF920F9324
S11319101F93CF93DF937B01EB01A881B9811097CB
S113192061F1FC01028113812481358112964D916C
S11319305D916D917C91159704171507260737075C
S113194014F41BC0DF01ED91FC911197309749F01D
S1131950428153816481758104171507260737076F
S11319608CF7EC01F983E883109721F4F701918354
S1131970808307C08D939C9304C0EC01B983A88332
S1131980F5CFDF91CF911F910F91FF90EF900895C4
S1131990DC01ED91FC911197309759F48FEF80930E
S11319A0EC008093ED008093EE0081E083BF889586
S11319B0FDCF208131812D933C93CF0108951F9257
S11319C00F920FB60F9211242F933F934F935F936F
S11319D06F937F938F939F93EF93FF938091320143
S11319E09091330101969093330180933201E091F9
S11319F03801F0913901309701F1428153816481BA
S1131A00758186179707C9F4CA0120918400309123
S1131A108500421B530B4130510529F48091840009
S1131A209091850001969093890080938800EFE659
S1131A30F0E080818260808305C0EFE6F0E0808181
S1131A408D7F8083FF91EF919F918F917F916F9113
S1131A505F914F913F912F910F900FBE0F901F9068
S1131A6018951F920F920FB60F921124CF92DF9206
S1131A70EF92FF922F933F934F935F936F937F93D4
S1131A808F939F93AF93BF93EF93FF93C0903201D3
S1131A90D09033012091840030918500B0990FC01B
S1131AA00D2C000CEE08FF08D60199278827690140
S1131AB0E12CF12CC82AD92AEA2AFB2A15C0209144
S1131AC08400309185008FEFC81AD80A0D2C000CC1
S1131AD0EE08FF08D601992788276901E12CF12C2B
S1131AE0C82AD92AEA2AFB2AE0913801F09139015F
S1131AF0309709F442C082819381A481B5818C1905
S1131B009D09AE09BF09181619061A061B06ECF141
S1131B1088E391E00E94C80C6AE371E00E94420CE1
S1131B20E0913801F0913901309739F18281938144
S1131B30A481B5818C199D09AE09BF09181619062F
S1131B401A061B062CF721C09C0140918400509179
S1131B508500841B950B019731F42091840030910A
S1131B6085002F5F3F4F3093890020938800EFE674
S1131B70F0E080818260808305C0EFE6F0E0808140
S1131B808D7F80830E946F040CC082819381A48125
S1131B90B58120913201309133012A173B0769F74F
S1131BA0D3CFFF91EF91BF91AF919F918F917F918F
S1131BB06F915F914F913F912F91FF90EF90DF9044
S1131BC0CF900F900FBE0F901F9018953F924F9299
S1131BD05F926F927F928F929F92AF92BF92CF92B9
S1131BE0DF92EF92FF920F931F93CF93DF932B011A
S1131BF03C0149015A018FB78078382EF8948EE061
S1131C0091E00E94C80CEC011B870A87FD86EC86D4
S1131C10DF86CE86332061F0E0910801F09109015E
S1131C200280F381E02D82819381A481B58108C073
S1131C308091340190913501A0913601B091370122
S1131C40480E591E6A1E7B1E4A825B826C827D820C
S1131C50181419041A041B0444F00F2E88248A94BF
S1131C60982CA82CFFE7BF2EF02D840C951CA61CE5
S1131C70B71C8E829F82A886B9868091320190918A
S1131C8033014091840050918500B0990EC0092E13
S1131C90000CAA0BBB0BDC019927882760E070E0DD
S1131CA0842B952BA62BB72B13C020918400309145
S1131CB085000196092E000CAA0BBB0BDC019927A9
S1131CC08827A90160E070E0842B952BA62BB72B05
S1131CD0481A590A6A0A7B0A1414150416041704CC
S1131CE0ACF568E371E0CE010E94850CE091380107
S1131CF0F0913901309721F182819381A481B581DA
S1131D0020913201309133012A173B07C9F49C0119
S1131D104091840050918500841B950B019731F408
S1131D2020918400309185002F5F3F4F30938900CC
S1131D3020938800EFE6F0E080818260808341C0D8
S1131D40EFE6F0E080818D7F80833BC06AE371E041
S1131D50CE010E94420C3320B9F180910C01909184
S1131D600D01009781F1E0910A01F0910B0120919E
S1131D703A0130913B0102811381D90116964D91AC
S1131D805D916D917C911997D80116960D911D91D5
S1131D902D913C911997401B510B620B730B9AF4D4
S1131DA0DC012D913C91119730930D0120930C018E
S1131DB0ED93FC9390930B0180930A010E944F04CE
S1131DC002C0332009F07894CE01DF91CF911F91A6
S1131DD00F91FF90EF90DF90CF90BF90AF909F90C6
S1131DE08F907F906F905F904F903F900895CF9227
S1131DF0DF92EF92FF920F931F93CF93DF93EC0147
S1131E007B016A011FB71078F894A881B9811097F3
S1131E1061F11496ED91FC911597309741F0A081F2
S1131E20B1811496ED91FC9115973097C1F72091EB
S1131E300801309109012A173B0721F0112309F405
S1131E403DC007C0112309F43CC078948FEF9FEF85
S1131E5052C08A819B810097D1F1FC0115821482C2
S1131E6036C0789480E090E046C08091080190915B
S1131E70090199838883112329F08A819B81019721
S1131E8009F07894B601CE01F7010995F82E092FCF
S1131E908FB7F894198218828A819B8182309105C8
S1131EA038F01B821A82FC01158214820E944F04AE
S1131EB0112351F078948F2D902F1DC08FEF9FEF39
S1131EC01AC08FEF9FEF17C08F2D902F14C03B8344
S1131ED02A83F901D583C483CD010E944F04E09184
S1131EE00801F091090182819381892B09F4B9CF0A
S1131EF0F983E883C2CFDF91CF911F910F91FF90B7
S1131F00EF90DF90CF90089500910801109109019E
S1131F108AE391E00E94C80CEC01D80113969C93CB
S1131F208E93129778944E855F856C857D858A851E
S1131F309B850E94F70E8FB7F89480910E019091C3
S1131F400F0199838883D0930F01C0930E01E09110
S1131F500A01F0910B0100811181E8012A813B8182
S1131F60A0913A01B0913B011097C1F021153105C0
S1131F7059F216968D919D910D90BC91A02DE90179
S1131F804E815F8168857985841B950BA60BB70B01
S1131F90181619061A061B060CF0B6CF10930B017F
S1131FA000930A0180910C0190910D01918380832B
S1131FB0F0930D01E0930C01A0910A01B0910B0183
S1131FC01496ED91FC911597309741F0A081B18161
S1131FD01496ED91FC9115973097C1F7CD010E94AD
S1131FE04F0492CF4231B8F42FB7F89450E0440F25
S1131FF0551FFA01E45CFE4F91838083FA01EC5291
S1132000FE4F7183608341E050E0FC0153834283BF
S113201022230CF4789408958C017B016A018FB714
S1132020F8940E94E4037894E114F10441F020E070
S113203030E0A90160E070E0CB010E94E60D8FB7AB
S1132040F8940E946F04789481E083BF8895FDCF53
S1132050CF92DF92EF92FF920F931F93FC01909126
S1132060C6009F709230E1F018F4913031F056C000
S1132070943051F19830E9F151C004811581C12C9B
S1132080D12C0F2EFCE6EF2EF2E0FF2EF02D20E0F7
S113209030E0A90160E070E0CB010E94E60D3EC093
S11320A004811581CC24C394D12C0F2EFCE6EF2E91
S11320B0F2E0FF2EF02D20E030E0A90160E070E0B6
S11320C0CB010E94E60D2AC0048115816894CC24BA
S11320D0C1F8D12C0F2EFCE6EF2EF2E0FF2EF02DEE
S11320E020E030E0A90160E070E0CB010E94E60D41
S11320F015C0048115810F2EF3E0CF2ED12CF02DC5
S11321000F2EFCE6EF2EF2E0FF2EF02D20E030E063
S1132110A90160E070E0CB010E94E60D1F910F91D0
S1132120FF90EF90DF90CF9008950E949C10B7FF2E
S11321300895821B930B0895A29FB001B39FC00121
S1132140A39F700D811D1124911DB29F700D811DDF
S11321501124911D0895DC012D923D924D925D92C2
S11321606D927D928D929D92AD92BD92CD92DD92B3
S1132170ED92FD920D931D93CD93DD93FF91EF911D
S11321808DB78D938EB78D938FB78D93ED93FD930C
S1132190882799270994DC01CB0181309105811DA1
S11321A02D903D904D905D906D907D908D909D9083
S11321B0AD90BD90CD90DD90ED90FD900D911D9171
S11321C0CD91DD91ED91FD910D90F894FEBF0FBE80
S10F21D0EDBFED91FD910994F894FFCF50
S11321DC0000000024010000F801F8016001150260
S11321EC51158020111E111B500B411B411F110155
S10721FC511F510B0F
S9030000FC
