S00C00004C6162322E73726563D7
S11300000C942E000C944B000C944B000C94610344
S11300100C944B000C944B000C944B000C948603F2
S11300200C944B000C944B000C944B000C944B0020
S11300300C944B000C944B000C944B000C944B0010
S11300400C944B000C944B000C944B000C944B0000
S11300500C944B000C944B000C944B0011241FBEC9
S1130060CFEFD4E0DEBFCDBF11E0A0E0B1E0E0ED22
S1130070F8E002C005900D92A831B107D9F723E04A
S1130080A8E1B1E001C01D92A334B207E1F70E94D8
S11300906F020C9466040C940000CF92DF92EF92EE
S11300A0FF92CF93DF936B017C0183E0C816D104E8
S11300B0E104F1047CF1D701C60181709927AA27D4
S11300C0B078BB2354F40197A109B1098E6F9F6FD7
S11300D0AF6FBF6F0196A11DB11D892B8A2B8B2B8E
S11300E0E1F0C2E0D0E008C0C701B6010E94E40319
S11300F0672B682B692BA1F021969E01442737FDBD
S11301004095542F2C153D054E055F056CF381E099
S113011090E008C081E090E005C080E090E002C07B
S113012080E090E0DF91CF91FF90EF90DF90CF904F
S11301300895CF93DF93CDB7DEB764970FB6F894E5
S1130140DEBF0FBECDBF94E1E4E0F1E0DE01119625
S113015001900D929A95E1F76630710508F043C15C
S11301608A3008F08053893008F03DC1E82FF0E070
S1130170EE0FFF1FEC0FFD1F818192816115710548
S113018071F5ECEEF0E02081382F3F70207F232BB7
S113019020839C0135952795359527953595279589
S11301A035952795E1EFF0E030812F70307F232BD8
S11301B02083E6EFF0E02081392F3F70207F232B4E
S11301C0208380E19802812D990B1124EBEFF0E05C
S11301D02081382F3F70207F232B208366C061301D
S11301E0710591F5ECEEF0E02081382F3295307FE7
S11301F02F70232B2083E1EFF0E040819C01207FCE
S11302003327342F3F70232B2083E6EFF0E0408127
S11302109C01329522952F7023273F702327207F3E
S11302203327342F3F70232B208380E19802812DC4
S1130230990B1124EBEFF0E02081382F3295307FB9
S11302402F70232B208369C06230710571F5EDEEA8
S1130250F0E02081382F3F70207F232B20839C01E6
S11302603595279535952795359527953595279572
S1130270E2EFF0E030812F70307F232B2083E7EF13
S1130280F0E02081392F3F70207F232B208380E1F1
S11302909802812D990B1124ECEFF0E02081382F86
S11302A03F70207F232B208367C063307105A9F53D
S11302B0EDEEF0E02081382F3295307F2F70232B24
S11302C02083E2EFF0E040819C01207F3327342F2C
S11302D03F70232B2083E7EFF0E040819C013295AF
S11302E022952F7023273F702327207F3327342F15
S11302F03F70232B2083ECEFF0E02081892F992796
S113030082958F7082959295907F9827807F982709
S1130310922F9F70892B808366C06430710561F5CC
S1130320EEEEF0E02081382F3F70207F232B2083D6
S11303309C013595279535952795359527953595C0
S11303402795E3EFF0E080812F70807F282B2083B6
S1130350E8EFF0E08081292F2F70807F822B80834B
S1130360EDEFF0E0808195959595959595959F7025
S1130370807F892B808337C065307105A1F5EEEE4F
S1130380F0E02081382F3295307F2F70232B20838B
S1130390E3EFF0E040819C01207F3327342F3F704E
S11303A0232B2083E8EFF0E040819C0132952295D5
S11303B02F7023273F702327207F3327342F3F704C
S11303C0232B2083EDEFF0E02081892F992782955C
S11303D08F7082959295907F9827807F9827922F8F
S11303E09F70892B808364960FB6F894DEBF0FBE8E
S11303F0CDBFDF91CF91089587EB8093E50087E02F
S11304008093E6008FE08093E70080EC8093E40023
S113041008950F931F93CF93DF93162FEA0188E17A
S113042091E00E94AA03D0932101C093200189E2A4
S1130430189F812D112482958F70912F24E6829F1D
S1130440901911240DEC909F812D11248695869589
S11304508695BE01805D0E94990020912001309113
S11304602101B9016F5F7F4F7093210160932001D7
S1130470109F012D1124069506950695000F802FD7
S1130480880F880F080F812F801B805D0E949900C0
S113049088E191E00E94C603DF91CF911F910F91F3
S11304A00895EC01C12CD12C7601C394C701B60187
S11304B00E944D00019729F4AE01C701B6010E94C4
S11304C009028FEFC81AD80AE80AF80AEFCFE1E662
S11304D0F0E080E8808310820E94FC0108950E946D
S11304E0670260E070E081E592E00E94C30283E06D
S11304F090E00E945102F894DC0115961C921E9221
S11305001497DB01ED91FC911197309719F48D93B9
S11305109C9309C0248135812115310511F0F9011D
S1130520F9CF9583848378940895F894DC01ED9150
S1130530FC911197309709F4FFCF248135812D93D5
S11305403C93CF010895CF93DF9300D0CDB7DEB7AE
S11305509A838983809100019091010106960E94FB
S11305602504892B59F489819A8190930101809300
S1130570000161E070E006960E9445040F900F9020
S1130580DF91CF910895EF92FF920F931F93CF9332
S1130590DF9300D0CDB7DEB77C018B01F894809156
S11305A01C0190911D01892BA1F58CEF91E0909392
S11305B094018093930189E692E0909301028093E1
S11305C0000286ED92E090936E0280936D02109289
S11305D0DB021092DA0280E880936C008DBB85B94F
S11305E080EC809380008DE08093810010928500E0
S11305F01092840086E891E09093890080938800AB
S113060082E080936F0081E090E090931D018093DD
S11306101C0182E091E00E9495029A838983FC0187
S1130620F182E082138302831582148206960E946B
S113063025040197E1F47894A0910001B09101019F
S1130640ED91FC91119712968D919C9113970995B8
S1130650F89462E071E080910001909101010E94A0
S11306607B028EE191E00E9495020E94A30289819F
S11306709A8187599F4FE981FA81978B868B918F55
S1130680808F6EE171E0CF010E947B0278940F901D
S11306900F90DF91CF911F910F91FF90EF900895EC
S11306A0F8946EE171E080910001909101010E9443
S11306B07B028EE191E00E9495020E94A30278944D
S11306C008951F920F920FB60F9211242F933F9308
S11306D04F935F936F937F938F939F93AF93BF9346
S11306E0EF93FF931F9B0E945003FF91EF91BF91E3
S11306F0AF919F918F917F916F915F914F913F91B6
S11307002F910F900FBE0F901F9018951F920F926C
S11307100FB60F9211242F933F934F935F936F93D0
S11307207F938F939F93AF93BF93EF93FF930E9415
S11307305003FF91EF91BF91AF919F918F917F9162
S11307406F915F914F913F912F910F900FBE0F903A
S11307501F901895F894FC0120813181232B29F4F2
S113076021E030E0318320830FC0BC016E5F7F4FF6
S113077080910001909101010E947B028EE191E041
S11307800E9495020E94A30278940895CF93DF9368
S1130790F894FC0122813381232B79F0EC01229619
S11307A0BE0180910001909101010E947B02CE0163
S11307B00E9495020E94A30203C0FC0111821082D0
S11307C07894DF91CF910895052E97FB1EF4009441
S11307D00E94FB0357FD07D00E94030407FC03D0CB
S11307E04EF40C94FB0350954095309521953F4F62
S11307F04F4F5F4F089590958095709561957F4F09
S11308008F4F9F4F0895A1E21A2EAA1BBB1BFD0117
S11308100DC0AA1FBB1FEE1FFF1FA217B307E407DB
S1130820F50720F0A21BB30BE40BF50B661F771F33
S1130830881F991F1A9469F7609570958095909513
S11308409B01AC01BD01CF010895DC012D923D92C5
S11308504D925D926D927D928D929D92AD92BD92DC
S1130860CD92DD92ED92FD920D931D93CD93DD9388
S1130870FF91EF918DB78D938EB78D938FB78D9335
S1130880ED93FD93882799270994DC01CB018130EE
S11308909105811D2D903D904D905D906D907D90C2
S11308A08D909D90AD90BD90CD90DD90ED90FD909C
S11308B00D911D91CD91DD91ED91FD910D90F894E7
S11308C0FEBF0FBEEDBFED91FD910994F894FFCFEB
S11308D022018F0151158020111E111B500B411B49
S10B08E0411F1101511F510BCE
S9030000FC
