S00C00004C6162342E73726563D5
S11300000C942E000C94F9050C9465060C94D106FE
S11300100C943D070C94A9070C944B000C947B0E94
S11300200C944B000C94280E0C9415080C94810825
S11300300C94ED080C9459090C94C5090C94310ADC
S11300400C949D0A0C94090B0C94750B0C94E10B05
S11300500C944D0C0C94B90C0C94250D11241FBE5A
S1130060CFEFD4E0DEBFCDBF11E0A0E0B1E0ECE122
S1130070F4E202C005900D92AC31B107D9F724E047
S1130080ACE1B1E001C01D92AF36B207E1F70E94C6
S1130090B0010C940C120C940000CF92DF92EF92FA
S11300A0FF920F931F93CF93DF93EC0181E090E0D5
S11300B09B878A871E9B02C01F9916C008851985D5
S11300C0CC24C394D12C0F2EFBEDEF2EF4E0FF2EA5
S11300D0F02D20E030E0A90160E070E0CB010E9447
S11300E02E0F1B861A8602C01B861A86DF91CF91BB
S11300F01F910F91FF90EF90DF90CF900895CF92D2
S1130100DF92EF92FF920F931F93CF93DF93EC0153
S11301101C9969C0EE81FF810084F185E02D848102
S11301209581892BE1F58681978195838483EE817E
S1130130FF810084F185E02D17821682EE81FF8114
S113014000851185F8016481758184EF91E00E9436
S11301508D112DE730E0DB010E94A1116B017C01C0
S113016099232CF4F3E0CF0ED11CE11CF11CC70140
S1130170B601959587957795679595958795779524
S11301806795C12CD12C0F2EF7E2EF2EF4E0FF2E51
S1130190F02D20E030E0A9010E942E0F11C0C12CE7
S11301A0D12C0F2EF1EDEF2EF4E0FF2EF02D8F0168
S11301B020E030E0A90160E070E0CB010E942E0F46
S11301C00E811F81C12CD12C0F2EF9EEEF2EF3E0FE
S11301D0FF2EF02D20E030E0A90160E070E0CB01BB
S11301E00E942E0F64C01E9930C0EE81FF8141E051
S11301F050E06DE774E0808591850E943E100E8189
S11302001F81C12CD12C0F2EF9EEEF2EF3E0FF2E1F
S1130210F02D20E030E0A90160E070E0CB010E9405
S11302202E0FCC24C394D12C0F2EFDE4EF2EF0E03E
S1130230FF2EF02D8E0120E030E0A90169E07DE37E
S113024080E090E00E942E0F32C01F9930C0EE81F2
S1130250FF814FEF5FEF6DE774E0808591850E9429
S11302603E100E811F81C12CD12C0F2EF9EEEF2EE2
S1130270F3E0FF2EF02D20E030E0A90160E070E013
S1130280CB010E942E0F08851985CC24C394D12C50
S11302900F2EFBEDEF2EF4E0FF2EF02D20E030E0EA
S11302A0A90169E07DE380E090E00E942E0FDF91D8
S11302B0CF911F910F91FF90EF90DF90CF90089511
S11302C0CF92DF92EF92FF920F931F93CF93DF931E
S11302D0EC01629914C00E811F81CC24C394D12CEB
S11302E00F2EF7E0EF2EF4E0FF2EF02D20E030E0AB
S11302F0A90160E070E0CB010E942E0F16C0639943
S113030014C00E811F816894CC24C1F8D12C0F2E07
S1130310F7E0EF2EF4E0FF2EF02D20E030E0A9010D
S113032060E070E0CB010E942E0F0E811F81C12C72
S1130330D12C0F2EF9EEEF2EF3E0FF2EF02D20E05E
S113034030E0A90160E070E0CB010E942E0FDF9144
S1130350CF911F910F91FF90EF90DF90CF90089570
S11303600F931F93CF93DF93CDB7DEB7C054D1095A
S11303700FB6F894DEBF0FBECDBF0E9430021A82C2
S113038019821C821B821E821D8218861F821A8675
S113039019861C861B861E861D86CE010196988BA7
S11303A08F8724E030E03A8B298B1C8A1B8A1E8AB3
S11303B01D8A188E1F8A1A8E198E1C8E1B8E9E8F74
S11303C08D8F86E090E098A38F8F1AA219A21CA2A9
S11303D01BA21EA21DA2CE01079698A78FA39E0161
S11303E02B5E3F4F3AA729A79CA78BA71EA61DA645
S11303F018AA1FA61AAA19AA8E010D5D1F4F1CABBD
S11304000BAB1EAA1DAA18AE1FAA1AAE19AE1CAFBA
S11304100BAF86969EAF8DAF21961FAE1EAE219771
S113042042E06FE770E008960E94421141E060E606
S113043071E0CE01C5960E94421140E050E069EEA1
S113044073E0C8010E945C11C05CDF4F0FB6F894E2
S1130450DEBF0FBECDBFDF91CF911F910F910895E5
S1130460E1E6F0E080E88083108220ED25B99CE08D
S11304709EB980EC8DBB20936C0090936B0097EB3E
S11304809093E50097E09093E6009FE09093E70057
S11304908093E400EFEEF0E080818160808310922D
S11304A0ED000895CF93DF93CDB7DEB764970FB611
S11304B0F894DEBF0FBECDBF94E1E8E0F1E0DE01C9
S11304C0119601900D929A95E1F76630710508F046
S11304D043C18A3008F08053893008F03DC1E82FC9
S11304E0F0E0EE0FFF1FEC0FFD1F8181928161157B
S11304F0710571F5ECEEF0E02081382F3F70207F1C
S1130500232B20839C013595279535952795359583
S1130510279535952795E1EFF0E030812F70307FF6
S1130520232B2083E6EFF0E02081392F3F70207FDA
S1130530232B208380E19802812D990B1124EBEF6A
S1130540F0E02081382F3F70207F232B208366C06A
S11305506130710591F5ECEEF0E02081382F329591
S1130560307F2F70232B2083E1EFF0E040819C014A
S1130570207F3327342F3F70232B2083E6EFF0E0D6
S113058040819C01329522952F7023273F702327A9
S1130590207F3327342F3F70232B208380E1980260
S11305A0812D990B1124EBEFF0E02081382F329547
S11305B0307F2F70232B208369C06230710571F561
S11305C0EDEEF0E02081382F3F70207F232B208335
S11305D09C0135952795359527953595279535951E
S11305E02795E2EFF0E030812F70307F232B2083BA
S11305F0E7EFF0E02081392F3F70207F232B208309
S113060080E19802812D990B1124ECEFF0E0208118
S1130610382F3F70207F232B208367C06330710500
S1130620A9F5EDEEF0E02081382F3295307F2F7060
S1130630232B2083E2EFF0E040819C01207F3327CD
S1130640342F3F70232B2083E7EFF0E040819C019F
S1130650329522952F7023273F702327207F33273D
S1130660342F3F70232B2083ECEFF0E02081892F7F
S1130670992782958F7082959295907F9827807F95
S11306809827922F9F70892B808366C064307105F0
S113069061F5EEEEF0E02081382F3F70207F232BB0
S11306A020839C0135952795359527953595279574
S11306B035952795E3EFF0E080812F70807F282B1C
S11306C02083E8EFF0E08081292F2F70807F822B38
S11306D08083EDEFF0E080819595959595959595BE
S11306E09F70807F892B808337C065307105A1F5A9
S11306F0EEEEF0E02081382F3295307F2F70232BDF
S11307002083E3EFF0E040819C01207F3327342FE6
S11307103F70232B2083E8EFF0E040819C01329569
S113072022952F7023273F702327207F3327342FD0
S11307303F70232B2083EDEFF0E02081892F992750
S113074082958F7082959295907F9827807F9827C5
S1130750922F9F70892B808364960FB6F894DEBF26
S11307600FBECDBFDF91CF9108950F931F93CF9309
S1130770DF93162FEA0189E2689F812D1124829567
S11307808F70962F24E6829F901911240DEC909F70
S1130790812D1124869586958695BA01805D0E94E7
S11307A05202BE016F5F7F4F109F012D11240695E9
S11307B006950695000F802F880F880F080F812F4C
S11307C0801B805D0E945202DF91CF911F910F9197
S11307D00895CF93DF93EC01EC81FD8164817581F1
S11307E0882777FD8095982F40E050E00E94B5035C
S11307F0EE81FF8164817581882777FD8095982F2C
S113080044E050E00E94B503DF91CF910895613038
S1130810710569F4EFEEF0E02081216020831092ED
S1130820ED00FC01248135813187208708956230F1
S1130830710561F4EDEEF0E02081226020831092D6
S1130840EF00FC0126813781318720870895CF92FC
S1130850DF92EF92FF920F931F93CF93DF93EC01FC
S11308608C819D8118161906ACF54A855B8568E76D
S113087071E1888599850E943E106C817D8184EFA9
S113088091E00E948D112DE730E0DB010E94A1115F
S11308906B017C0199232CF423E0C20ED11CE11CD2
S11308A0F11CC701B6019595879577956795959540
S11308B0879577956795C12CD12C0F2EF7E2EF2EF3
S11308C0F4E0FF2EF02D8E0120E030E0A9010E941B
S11308D02E0F0AC08A859B858430910511F48EB150
S11308E003C0069709F48EB1DF91CF911F910F9148
S11308F0FF90EF90DF90CF900895CF92DF92EF9228
S1130900FF920F931F93CF93DF93EC01772354F45B
S11309108C819D81181619062CF4680F791F7D832C
S11309206C8336C0161617066CF48C819D819C016D
S1130930215031092336310528F4680F791F7D834E
S11309406C8326C08C819D81892B11F561307105E2
S1130950F9F48C859D85892BB1F481E090E09D8725
S11309608C87C12CD12C0F2EF7E2EF2EF4E0FF2E52
S1130970F02D8E0120E030E0A90169E07DE380E004
S113098090E00E942E0F8C819D8101969D838C8323
S1130990DF91CF911F910F91FF90EF90DF90CF9057
S11309A00895FC018481958197838683158214823E
S11309B0158614860895CF92DF92EF92FF920F93DB
S11309C01F93CF93DF93EC018C819D810197E9F410
S11309D01E990BC0EE81FF8141E050E06DE774E0A9
S11309E0808591850E943E1014C01F990BC0EE8132
S11309F0FF814FEF5FEF6DE774E0808591850E9482
S1130A003E1007C01D821C821EC081E090E09D83C1
S1130A108C8341E050E069EE73E08E819F810E94F7
S1130A203E10C12CD12C0F2EFBEDEF2EF4E0FF2E47
S1130A30F02D8E0120E030E0A9016AE678E180E043
S1130A4090E00E942E0FDF91CF911F910F91FF90A4
S1130A50EF90DF90CF900895CF93DF9300D000D034
S1130A60CDB7DEB78FE092E02FEE32E0FC01709755
S1130A7091838083409682179307C1F71092E00216
S1130A801092DF02E7E6F1E0F0934B01E0934A01B4
S1130A90A4E8B1E0B183A083E1EAF1E0ED93FC9333
S1130AA01182108280E591E09A838983EBE4F3E07C
S1130AB0FC83EB8389819A810E94CB118B819C8179
S1130AC0E981FA81918B808B938B828B84ED90E109
S1130AD0968B858B329711821082E981FA817D96FB
S1130AE0FA83E9838B819C81805A9F4F9C838B83FB
S1130AF0E45CF140F9F61092E3011092E2011092E5
S1130B00E7011092E6011092E5011092E401E1E69A
S1130B10F0E080E8808310821092850010928400B7
S1130B2084E08093810081E080936F000F900F90A8
S1130B300F900F90DF91CF910895CF93DF9300D062
S1130B40CDB7DEB79A83898380910001909101012A
S1130B5006960E94CB11892B59F489819A8190932E
S1130B6001018093000161E070E006960E94EB11A0
S1130B700F900F90DF91CF9108950F931F93CF9310
S1130B80DF93E0910201F0910301C281D381A0912E
S1130B902401B0912501109739F1809104019091BD
S1130BA00501009709F1209779F016964D915D9112
S1130BB06D917C9119970E811F8128853985401B81
S1130BC0510B620B730B82F4DC012D913C91119754
S1130BD03093050120930401ED93FC93909303015A
S1130BE0809302010E949D05DF91CF911F910F9187
S1130BF008951F920F920FB60F9211242F933F93D3
S1130C004F935F936F937F938F939F93AF93BF9310
S1130C10EF93FF9320911C0130911D0140918400BA
S1130C2050918500C901AA2797FDA095BA2FDC0130
S1130C309927882760E070E0842B952BA62BB72B8F
S1130C4080931E0190931F01A0932001B093210172
S1130C50B09B1BC04091840050918500C90101964E
S1130C60AA2797FDA095BA2FDC019927882760E071
S1130C7070E0842B952BA62BB72B80931E019093A9
S1130C801F01A0932001B0932101E091BE01F091D6
S1130C90BF01309739F060E070E0809126019091B7
S1130CA0270109950E94BD05FF91EF91BF91AF9176
S1130CB09F918F917F916F915F914F913F912F9170
S1130CC00F900FBE0F901F9018951F920F920FB6A2
S1130CD00F9211242F933F934F935F936F937F93BE
S1130CE08F939F93AF93BF93EF93FF9320911C0136
S1130CF030911D014091840050918500C901AA27BB
S1130D0097FDA095BA2FDC019927882760E070E051
S1130D10842B952BA62BB72B80931E0190931F0138
S1130D20A0932001B0932101B09B1BC0409184008B
S1130D3050918500C9010196AA2797FDA095BA2F65
S1130D40DC019927882760E070E0842B952BA62B83
S1130D50B72B80931E0190931F01A0932001B093A1
S1130D602101E091C001F091C101309739F061E0B7
S1130D7070E0809128019091290109950E94BD0598
S1130D80FF91EF91BF91AF919F918F917F916F915F
S1130D905F914F913F912F910F900FBE0F901F9035
S1130DA018951F920F920FB60F9211242F933F9311
S1130DB04F935F936F937F938F939F93AF93BF935F
S1130DC0EF93FF9320911C0130911D014091840009
S1130DD050918500C901AA2797FDA095BA2FDC017F
S1130DE09927882760E070E0842B952BA62BB72BDE
S1130DF080931E0190931F01A0932001B0932101C1
S1130E00B09B1BC04091840050918500C90101969C
S1130E10AA2797FDA095BA2FDC019927882760E0BF
S1130E2070E0842B952BA62BB72B80931E019093F7
S1130E301F01A0932001B0932101E091C201F09120
S1130E40C301309739F062E070E080912A019091FB
S1130E502B0109950E94BD05FF91EF91BF91AF91C0
S1130E609F918F917F916F915F914F913F912F91BE
S1130E700F900FBE0F901F9018951F920F920FB6F0
S1130E800F9211242F933F934F935F936F937F930C
S1130E908F939F93AF93BF93EF93FF9320911C0184
S1130EA030911D014091840050918500C901AA2709
S1130EB097FDA095BA2FDC019927882760E070E0A0
S1130EC0842B952BA62BB72B80931E0190931F0187
S1130ED0A0932001B0932101B09B1BC040918400DA
S1130EE050918500C9010196AA2797FDA095BA2FB4
S1130EF0DC019927882760E070E0842B952BA62BD2
S1130F00B72B80931E0190931F01A0932001B093EF
S1130F102101E091C401F091C501309739F063E0FB
S1130F2070E080912C0190912D0109950E94BD05DE
S1130F30FF91EF91BF91AF919F918F917F916F91AD
S1130F405F914F913F912F910F900FBE0F901F9083
S1130F5018951F920F920FB60F9211242F933F935F
S1130F604F935F936F937F938F939F93AF93BF93AD
S1130F70EF93FF9320911C0130911D014091840057
S1130F8050918500C901AA2797FDA095BA2FDC01CD
S1130F909927882760E070E0842B952BA62BB72B2C
S1130FA080931E0190931F01A0932001B09321010F
S1130FB0B09B1BC04091840050918500C9010196EB
S1130FC0AA2797FDA095BA2FDC019927882760E00E
S1130FD070E0842B952BA62BB72B80931E01909346
S1130FE01F01A0932001B0932101E091C601F0916B
S1130FF0C701309739F064E070E080912E01909140
S11310002F0109950E94BD05FF91EF91BF91AF910A
S11310109F918F917F916F915F914F913F912F910C
S11310200F900FBE0F901F9018951F920F920FB63E
S11310300F9211242F933F934F935F936F937F935A
S11310408F939F93AF93BF93EF93FF9320911C01D2
S113105030911D014091840050918500C901AA2757
S113106097FDA095BA2FDC019927882760E070E0EE
S1131070842B952BA62BB72B80931E0190931F01D5
S1131080A0932001B0932101B09B1BC04091840028
S113109050918500C9010196AA2797FDA095BA2F02
S11310A0DC019927882760E070E0842B952BA62B20
S11310B0B72B80931E0190931F01A0932001B0933E
S11310C02101E091C801F091C901309739F065E040
S11310D070E0809130019091310109950E94BD0525
S11310E0FF91EF91BF91AF919F918F917F916F91FC
S11310F05F914F913F912F910F900FBE0F901F90D2
S113110018951F920F920FB60F9211242F933F93AD
S11311104F935F936F937F938F939F93AF93BF93FB
S1131120EF93FF9320911C0130911D0140918400A5
S113113050918500C901AA2797FDA095BA2FDC011B
S11311409927882760E070E0842B952BA62BB72B7A
S113115080931E0190931F01A0932001B09321015D
S1131160B09B1BC04091840050918500C901019639
S1131170AA2797FDA095BA2FDC019927882760E05C
S113118070E0842B952BA62BB72B80931E01909394
S11311901F01A0932001B0932101E091CA01F091B5
S11311A0CB01309739F066E070E080913201909184
S11311B0330109950E94BD05FF91EF91BF91AF9155
S11311C09F918F917F916F915F914F913F912F915B
S11311D00F900FBE0F901F9018951F920F920FB68D
S11311E00F9211242F933F934F935F936F937F93A9
S11311F08F939F93AF93BF93EF93FF9320911C0121
S113120030911D014091840050918500C901AA27A5
S113121097FDA095BA2FDC019927882760E070E03C
S1131220842B952BA62BB72B80931E0190931F0123
S1131230A0932001B0932101B09B1BC04091840076
S113124050918500C9010196AA2797FDA095BA2F50
S1131250DC019927882760E070E0842B952BA62B6E
S1131260B72B80931E0190931F01A0932001B0938C
S11312702101E091CC01F091CD01309739F067E084
S113128070E0809134019091350109950E94BD056B
S1131290FF91EF91BF91AF919F918F917F916F914A
S11312A05F914F913F912F910F900FBE0F901F9020
S11312B018951F920F920FB60F9211242F933F93FC
S11312C04F935F936F937F938F939F93AF93BF934A
S11312D0EF93FF9320911C0130911D0140918400F4
S11312E050918500C901AA2797FDA095BA2FDC016A
S11312F09927882760E070E0842B952BA62BB72BC9
S113130080931E0190931F01A0932001B0932101AB
S1131310B09B1BC04091840050918500C901019687
S1131320AA2797FDA095BA2FDC019927882760E0AA
S113133070E0842B952BA62BB72B80931E019093E2
S11313401F01A0932001B0932101E091CE01F091FF
S1131350CF01309739F068E070E0809136019091C8
S1131360370109950E94BD05FF91EF91BF91AF919F
S11313709F918F917F916F915F914F913F912F91A9
S11313800F900FBE0F901F9018951F920F920FB6DB
S11313900F9211242F933F934F935F936F937F93F7
S11313A08F939F93AF93BF93EF93FF9320911C016F
S11313B030911D014091840050918500C901AA27F4
S11313C097FDA095BA2FDC019927882760E070E08B
S11313D0842B952BA62BB72B80931E0190931F0172
S11313E0A0932001B0932101B09B1BC040918400C5
S11313F050918500C9010196AA2797FDA095BA2F9F
S1131400DC019927882760E070E0842B952BA62BBC
S1131410B72B80931E0190931F01A0932001B093DA
S11314202101E091D001F091D101309739F069E0C8
S113143070E0809138019091390109950E94BD05B1
S1131440FF91EF91BF91AF919F918F917F916F9198
S11314505F914F913F912F910F900FBE0F901F906E
S113146018951F920F920FB60F9211242F933F934A
S11314704F935F936F937F938F939F93AF93BF9398
S1131480EF93FF9320911C0130911D014091840042
S113149050918500C901AA2797FDA095BA2FDC01B8
S11314A09927882760E070E0842B952BA62BB72B17
S11314B080931E0190931F01A0932001B0932101FA
S11314C0B09B1BC04091840050918500C9010196D6
S11314D0AA2797FDA095BA2FDC019927882760E0F9
S11314E070E0842B952BA62BB72B80931E01909331
S11314F01F01A0932001B0932101E091D201F0914A
S1131500D301309739F06AE070E080913A0190910C
S11315103B0109950E94BD05FF91EF91BF91AF91E9
S11315209F918F917F916F915F914F913F912F91F7
S11315300F900FBE0F901F9018951F920F920FB629
S11315400F9211242F933F934F935F936F937F9345
S11315508F939F93AF93BF93EF93FF9320911C01BD
S113156030911D014091840050918500C901AA2742
S113157097FDA095BA2FDC019927882760E070E0D9
S1131580842B952BA62BB72B80931E0190931F01C0
S1131590A0932001B0932101B09B1BC04091840013
S11315A050918500C9010196AA2797FDA095BA2FED
S11315B0DC019927882760E070E0842B952BA62B0B
S11315C0B72B80931E0190931F01A0932001B09329
S11315D02101E091D401F091D501309739F06BE00D
S11315E070E080913C0190913D0109950E94BD05F8
S11315F0FF91EF91BF91AF919F918F917F916F91E7
S11316005F914F913F912F910F900FBE0F901F90BC
S113161018951F920F920FB60F9211242F933F9398
S11316204F935F936F937F938F939F93AF93BF93E6
S1131630EF93FF9320911C0130911D014091840090
S113164050918500C901AA2797FDA095BA2FDC0106
S11316509927882760E070E0842B952BA62BB72B65
S113166080931E0190931F01A0932001B093210148
S1131670B09B1BC04091840050918500C901019624
S1131680AA2797FDA095BA2FDC019927882760E047
S113169070E0842B952BA62BB72B80931E0190937F
S11316A01F01A0932001B0932101E091D601F09194
S11316B0D701309739F06CE070E080913E01909151
S11316C03F0109950E94BD05FF91EF91BF91AF9134
S11316D09F918F917F916F915F914F913F912F9146
S11316E00F900FBE0F901F9018951F920F920FB678
S11316F00F9211242F933F934F935F936F937F9394
S11317008F939F93AF93BF93EF93FF9320911C010B
S113171030911D014091840050918500C901AA2790
S113172097FDA095BA2FDC019927882760E070E027
S1131730842B952BA62BB72B80931E0190931F010E
S1131740A0932001B0932101B09B1BC04091840061
S113175050918500C9010196AA2797FDA095BA2F3B
S1131760DC019927882760E070E0842B952BA62B59
S1131770B72B80931E0190931F01A0932001B09377
S11317802101E091D801F091D901309739F06DE051
S113179070E0809140019091410109950E94BD053E
S11317A0FF91EF91BF91AF919F918F917F916F9135
S11317B05F914F913F912F910F900FBE0F901F900B
S11317C018951F920F920FB60F9211242F933F93E7
S11317D04F935F936F937F938F939F93AF93BF9335
S11317E0EF93FF9320911C0130911D0140918400DF
S11317F050918500C901AA2797FDA095BA2FDC0155
S11318009927882760E070E0842B952BA62BB72BB3
S113181080931E0190931F01A0932001B093210196
S1131820B09B1BC04091840050918500C901019672
S1131830AA2797FDA095BA2FDC019927882760E095
S113184070E0842B952BA62BB72B80931E019093CD
S11318501F01A0932001B0932101E091DA01F091DE
S1131860DB01309739F06EE070E080914201909195
S1131870430109950E94BD05FF91EF91BF91AF917E
S11318809F918F917F916F915F914F913F912F9194
S11318900F900FBE0F901F9018951F920F920FB6C6
S11318A00F9211242F933F934F935F936F937F93E2
S11318B08F939F93AF93BF93EF93FF9320911C015A
S11318C030911D014091840050918500C901AA27DF
S11318D097FDA095BA2FDC019927882760E070E076
S11318E0842B952BA62BB72B80931E0190931F015D
S11318F0A0932001B0932101B09B1BC040918400B0
S113190050918500C9010196AA2797FDA095BA2F89
S1131910DC019927882760E070E0842B952BA62BA7
S1131920B72B80931E0190931F01A0932001B093C5
S11319302101E091DC01F091DD01309739F06FE095
S113194070E0809144019091450109950E94BD0584
S1131950FF91EF91BF91AF919F918F917F916F9183
S11319605F914F913F912F910F900FBE0F901F9059
S113197018951F920F920FB60F9211242F933F9335
S11319804F935F936F937F938F939F93AF93BF9383
S1131990EF93FF9320911C0130911D01409184002D
S11319A050918500C901AA2797FDA095BA2FDC01A3
S11319B09927882760E070E0842B952BA62BB72B02
S11319C080931E0190931F01A0932001B0932101E5
S11319D0B09B1BC04091840050918500C9010196C1
S11319E0AA2797FDA095BA2FDC019927882760E0E4
S11319F070E0842B952BA62BB72B80931E0190931C
S1131A001F01A0932001B0932101E091DE01F09128
S1131A10DF01309739F060E170E0809146019091E8
S1131A20470109950E94BD05FF91EF91BF91AF91C8
S1131A309F918F917F916F915F914F913F912F91E2
S1131A400F900FBE0F901F9018951F920F920FB614
S1131A500F9211242F933F934F935F936F937F9330
S1131A608F939F93AF93BF93EF93FF9320911C01A8
S1131A7030911D014091840050918500C901AA272D
S1131A8097FDA095BA2FDC019927882760E070E0C4
S1131A90842B952BA62BB72B80931E0190931F01AB
S1131AA0A0932001B0932101B09B1BC040918400FE
S1131AB050918500C9010196AA2797FDA095BA2FD8
S1131AC0DC019927882760E070E0842B952BA62BF6
S1131AD0B72B80931E0190931F01A0932001B09314
S1131AE02101E091E001F091E101309739F061E1E9
S1131AF070E0809148019091490109950E94BD05CB
S1131B00FF91EF91BF91AF919F918F917F916F91D1
S1131B105F914F913F912F910F900FBE0F901F90A7
S1131B201895EF92FF920F931F93CF93DF937B014E
S1131B30DB01ED91FC91309749F1EC010E811F819D
S1131B402885398546815781608571850417150775
S1131B5026073707DCF0C081D181209759F04E81E8
S1131B605F8168857985041715072607370714F000
S1131B70FE01F1CFDC01CD93DC93309721F4E70132
S1131B809983888307C09183808304C0DC01ED932B
S1131B90FC93F5CFDF91CF911F910F91FF90EF90C0
S1131BA00895EF92FF920F931F93CF93DF937B01DE
S1131BB0DB01ED91FC91309749F1EC010A811B8125
S1131BC02C813D81428153816481758104171507FD
S1131BD026073707DCF0C081D181209759F04A816C
S1131BE05B816C817D81041715072607370714F084
S1131BF0FE01F1CFDC01CD93DC93309721F4E701B2
S1131C009983888307C09183808304C0DC01ED93AA
S1131C10FC93F5CFDF91CF911F910F91FF90EF903F
S1131C200895DC01ED91FC911197309759F48FEFF1
S1131C308093EC008093ED008093EE0081E083BFFD
S1131C408895FDCF208131812D933C93CF01089558
S1131C501F920F920FB60F9211242F933F934F931D
S1131C605F938F939F93AF93BF93EF93FF932091D1
S1131C701C0130911D012F5F3F4F30931D012093B4
S1131C801C01E0912201F0912301309701F182813E
S1131C909381A481B5812A173B07C9F4209184005C
S1131CA030918500AC01421B530B4130510529F49E
S1131CB0809184009091850001969093890080938F
S1131CC08800EFE6F0E080818260808305C0EFE663
S1131CD0F0E080818D7F8083FF91EF91BF91AF9180
S1131CE09F918F915F914F913F912F910F900FBED4
S1131CF00F901F9018951F920F920FB60F921124F8
S1131D00CF92DF92EF92FF922F933F934F935F9383
S1131D106F937F938F939F93AF93BF93EF93FF93AF
S1131D20C0901C01D0901D01809184009091850089
S1131D30B0990EC0EE24D7FCE094FE2C7601DD248D
S1131D40CC24A0E0B0E0C82AD92AEA2AFB2A14C08D
S1131D5080918400909185002FEFC21AD20AEE245C
S1131D60D7FCE094FE2C7601DD24CC24A0E0B0E086
S1131D70C82AD92AEA2AFB2AE0912201F0912301F8
S1131D80309709F442C082819381A481B5818C1972
S1131D909D09AE09BF09181619061A061B06ECF1AF
S1131DA082E291E00E94110E64E271E00E94910DC2
S1131DB0E0912201F0912301309739F182819381DE
S1131DC0A481B5818C199D09AE09BF09181619069D
S1131DD01A061B062CF721C020918400309185003F
S1131DE0AC01421B530B4130510529F4809184000E
S1131DF09091850001969093890080938800EFE686
S1131E00F0E080818260808305C0EFE6F0E08081AD
S1131E108D7F80830E94BD050CC082819381A48143
S1131E20B58120911C0130911D012A173B0769F7E8
S1131E30D3CFFF91EF91BF91AF919F918F917F91FC
S1131E406F915F914F913F912F91FF90EF90DF90B1
S1131E50CF900F900FBE0F901F9018953F924F9206
S1131E605F926F927F928F929F92AF92BF92CF9226
S1131E70DF92EF92FF920F931F93CF93DF932B0187
S1131E803C0149015A018FB78078382EF89486E0D6
S1131E9091E00E94110EEC011B870A87FD86EC86F7
S1131EA0DF86CE86332061F0E0910001F0910101DC
S1131EB00280F381E02D82819381A481B58108C0E1
S1131EC080911E0190911F01A0912001B0912101E8
S1131ED0480E591E6A1E7B1E4A825B826C827D827A
S1131EE0181419041A041B0444F00F2E88248A942D
S1131EF0982CA82CFFE7BF2EF02D840C951CA61C53
S1131F00B71C8E829F82A886B98680911C0190910D
S1131F101D014091840050918500B0990EC0AA27FC
S1131F2097FDA095BA2FDC019927882760E070E01F
S1131F30842B952BA62BB72B12C040918400509173
S1131F4085000196AA2797FDA095BA2FDC01992751
S1131F50882760E070E0842B952BA62BB72B481ABA
S1131F60590A6A0A7B0A1414150416041704ACF5FA
S1131F7062E271E0CE010E94D10DE0912201F09164
S1131F802301309721F182819381A481B58120912D
S1131F901C0130911D012A173B07C9F420918400CC
S1131FA030918500AC01421B530B4130510529F49B
S1131FB0809184009091850001969093890080938C
S1131FC08800EFE6F0E080818260808341C0EFE624
S1131FD0F0E080818D7F80833BC064E271E0CE01BC
S1131FE00E94910D3320B9F1809104019091050173
S1131FF0009781F1E0910201F09103012091240105
S11320003091250102811381D90116964D915D917C
S11320106D917C911997D80116960D911D912D9172
S11320203C911997401B510B620B730B9AF4DC0122
S11320302D913C9111973093050120930401ED9368
S1132040FC9390930301809302010E949D0502C0BA
S1132050332009F07894CE01DF91CF911F910F9135
S1132060FF90EF90DF90CF90BF90AF909F908F90B4
S11320707F906F905F904F903F900895BF92CF9262
S1132080DF92EF92FF920F931F93CF93DF938C0114
S11320907B016A018FB78078B82EF894F801C0816B
S11320A0D181209751F1AC81BD81109731F0CD9150
S11320B0DC91AC81BD811097D1F7A0910001B09162
S11320C00101CA17DB0721F0BB2009F442C007C095
S11320D0BB2009F441C078948FEF9FEF5BC0F801F7
S11320E082819381009709F43DC0FC01158214821A
S11320F039C0789480E090E04DC0809100019091C7
S11321000101F80191838083BB2031F0F8018281C1
S11321109381019709F07894B601C801F7010995F4
S1132120D82FC92F8FB7F894F801118210828281B9
S113213093818230910538F013821282FC0115825A
S113214014820E949D05BB2051F078948D2F9C2F02
S113215021C08FEF9FEF1EC08FEF9FEF1BC08D2F0D
S11321609C2F18C0F801B383A28315961C930E9379
S11321701497CE010E949D05E0910001F0910101A8
S113218082819381892B09F4B4CFCF01F801918323
S11321908083BCCFDF91CF911F910F91FF90EF907F
S11321A0DF90CF90BF90089500910001109101013C
S11321B084E291E00E94110EEC01D80113969C93E5
S11321C08E93129778944E855F856C857D858A857C
S11321D09B850E943E108FB7F894809106019091E0
S11321E0070199838883D0930701C0930601E09186
S11321F00201F091030100811181E8012A813B81F0
S1132200A0912401B09125011097C1F02115310549
S113221059F216968D919D910D90BC91A02DE901D6
S11322204E815F8168857985841B950BA60BB70B5E
S1132230181619061A061B060CF0B6CF10930301E4
S113224000930201809104019091050191838083A0
S1132250F0930501E0930401A0910201B091030100
S11322601496ED91FC911597309741F0A081B181BE
S11322701496ED91FC9115973097C1F7CD010E940A
S11322809D0592CF4231B8F4AFB7F89450E0440FB3
S1132290551FFA01EA5DFE4F91838083FA01E254EF
S11322A0FE4F7183608321E030E0FC01338322839D
S11322B0AA230CF4789408958C017B016A018FB7EA
S11322C0F8940E942C057894E114F10441F020E084
S11322D030E0A90160E070E0CB010E942E0F8FB7BF
S11322E0F8940E94BD05789481E083BF8895FDCF62
S11322F06430710529F49EB180E189278EB908956F
S11323006630710549F4EDEEF0E0808180958083BC
S11323109EB180E489278EB9089597FB072E16F4A1
S1132320009407D077FD09D00E94A81107FC05D0BE
S11323303EF4909581959F4F0895709561957F4FD8
S113234008950E94BC11B7FF0895821B930B089552
S1132350AA1BBB1B51E107C0AA1FBB1FA617B707C7
S113236010F0A61BB70B881F991F5A95A9F78095E3
S11323709095BC01CD010895A29FB001B39FC00107
S1132380A39F700D811D1124911DB29F700D811D9D
S11323901124911D0895DC012D923D924D925D9280
S11323A06D927D928D929D92AD92BD92CD92DD9271
S11323B0ED92FD920D931D93CD93DD93FF91EF91DB
S11323C08DB78D938EB78D938FB78D93ED93FD93CA
S11323D0882799270994DC01CB0181309105811D5F
S11323E02D903D904D905D906D907D908D909D9041
S11323F0AD90BD90CD90DD90ED90FD900D911D912F
S1132400CD91DD91ED91FD910D90F894FEBF0FBE3D
S10F2410EDBFED91FD910994F894FFCF0D
S113241CE201E2014A01FF0151158020111E111B3A
S10F242C500B411B411F1101511F510BAB
S9030000FC
