:100000000C942E000C9443000C9443000C94430079
:100010000C9443000C9443000C9443000C94430054
:100020000C9443000C9443000C9443000C94430044
:100030000C9443000C9443000C9443000C94430034
:100040000C9443000C9443000C9443000C94430024
:100050000C9443000C9443000C94430011241FBEE5
:10006000CFEFD4E0DEBFCDBF11E0A0E0B1E0EAE128
:10007000F1E002C005900D92A030B107D9F70E94BF
:1000800082000C948B000C94000087EB8093E500B9
:1000900087E08093E6008FE08093E70080EC809318
:1000A000E400089584E0809381001092850010920E
:1000B000840080E090E020E030E0E4E8F0E0ADEEA5
:1000C000B0E0D1E0C0E012E070E060E002C0872F55
:1000D000962F408151814217530770F0009761F4C9
:1000E0002E5E35488C91811104C01C938D2F9C2F5E
:1000F00003C01C928D2F9C2F4081518142175307C2
:1001000030F3E7CFE1E6F0E080E8808310820E94E0
:0A01100045000E945200F894FFCF52
:00000001FF
